:020000040800F2
:1000000028D800202D040008F3850008A9820008E4
:10001000F1850008D91F0008C5BD000800000000D8
:100020000000000000000000000000003F04000885
:10003000992600080000000043040008F99A00080F
:100040004704000847040008470400084704000864
:100050004704000847040008470400084704000854
:100060004704000847040008470400086D21000801
:100070004704000847040008470400084704000834
:100080004704000847040008470400084704000824
:100090004704000847040008470400084704000814
:1000A0004704000847040008470400084704000804
:1000B00047040008470400084704000847040008F4
:1000C00047040008470400084704000847040008E4
:1000D0009196000847040008470400086DA800082E
:1000E0004704000847040008000000004704000817
:1000F00047040008470400084704000847040008B4
:1001000047040008470400084704000847040008A3
:100110004704000847040008470400084704000893
:1001200047040008C12100084704000847040008EC
:100130004704000847040008470400084704000873
:1001400000000000000000000000000000000000AF
:100150004704000847040008470400084704000853
:100160004704000847040008470400084704000843
:1001700047040008470400080121000800000000AF
:100180004704000847040008470400084704000823
:100190004704000847040008470400084704000813
:1001A0004704000847040008470400084704000803
:1001B00047040008470400084704000847040008F3
:1001C00047040008470400084704000847040008E3
:1001D0004704000891870008470400084704000806
:1001E00047040008470400084704000847040008C3
:1001F00047040008470400084704000847040008B3
:1002000047040008470400084704000847040008A2
:100210004704000847040008470400084704000892
:1002200047040008470400084704000800000000D5
:1002300047040008470400080000000047040008C5
:100240004704000847040008470400084704000862
:100250004704000847040008470400084704000852
:100260004704000847040008470400084704000842
:100270004704000847040008470400080000000085
:100280004704000847040008470400080000000075
:10029000000000004704000800F002F800F0B6F883
:1002A0000AA090E8000C82448344AAF10107DA45D1
:1002B00001D100F0ABF8AFF2090EBAE80F0013F06D
:1002C000010F18BFFB1A43F001031847407B0100E0
:1002D000707B01000A444FF0000C10F8013B13F052
:1002E000070408BF10F8014B1D1108BF10F8015B8F
:1002F000641E05D010F8016B641E01F8016BF9D182
:1003000013F0080F1EBF10F8014BAD1C0C1B09D1D8
:100310006D1E58BF01F801CBFAD505E014F8016B4A
:1003200001F8016B6D1EF9D59142D6D370470000DC
:100330000023002400250026103A28BF78C1FBD8EE
:10034000520728BF30C148BF0B6070476E2900F0CC
:100350002C85702900F08D86662913F06884652944
:1003600013F06584672913F06284612913F06184B6
:1003700003681B0A28BF41F08001692900F0AC81A5
:10038000642900F0A981752900F0A6816F2900F089
:100390001B86782900F05986E92900F0B585E42903
:1003A00000F0B285F52900F0AF85EF2900F018863E
:1003B000F82900F058860368DB0928BF41F0800166
:1003C000632900F03685732900F03B85E32901F0AD
:1003D0005982F32901F05E82002070471FB513F0A7
:1003E00019FC9DE8030000F00DFC00F051FE040034
:1003F0000020002113F0E2FB401C6060002000217F
:1004000013F0F2FBE0601FBD10B510BD01F072FAF1
:100410001146FFF7E3FF10F0D7FB01F043FB03B4F5
:10042000FFF7F2FF03BC01F073FB000009488047AF
:1004300009480047FEE7FEE7FEE7FEE7FEE7FEE7C6
:10044000FEE7FEE7FEE7FEE704480549054A064BDE
:1004500070470000199C00089902000828A8002095
:1004600028D8002028C8002028C8002070B50646DB
:1004700000F0A8FB056806F10B0020F00704B44269
:100480009CBF002070BD2B466A68BAB11068A042BC
:1004900010D304F1080188423CBF5068586007D36C
:1004A0005168101941601168091B0160586014609F
:1004B000101D70BD13465268002AE7D12146284618
:1004C00000F08CFB0028DED170BD70B50446051F1E
:1004D00000F078FB0068002C14BF446870BD002C4D
:1004E00018BFAC423CBF20466468F8D301680A18C4
:1004F000AA4218BF456003D12A680546114401602D
:1005000028684119A1421CBF6C6070BD61686960B8
:1005100021680844286070BD53EA020C00F069802D
:100520002DE9F04B4FF00006002B1FBFB3FA83F507
:1005300003FA05F424FA05F65E4012BF1643B2FA38
:1005400082F502FA05F4C5F120051EBF22FA05FC6A
:1005500044EA0C04203556EA044C4FEA144418BF10
:10056000641C4FF000084FF00009904271EB030C3F
:1005700039D3002919BFB1FA81F701FA07F6B0FAA9
:1005800080F700FA07F6C7F120071EBF20FA07FC24
:1005900046EA0C062037B6FBF4FCA7EB0507103F34
:1005A00007F01F0BCBF120062CFA06F60CFA0BFB1A
:1005B00044BFB3460026202FA4BF5E464FF0000B79
:1005C0005BEA060C08BF4FF0010B19EB0B0948EB77
:1005D0000608ABFB027C06FB02CC0BFB03CCC01B6A
:1005E00071EB0C01C1E70B46024641464846BDE8A7
:1005F000F08B13B54FF000004FF00001AFF3008017
:10060000BDE81C40704710B5044600F0D3FA0068FE
:10061000005D000704D5DF2C02D0A4F1200010BD3E
:10062000204610BD7CB51D4616460C00009001D03A
:100630002044401E074B7B442A46694601903046C1
:1006400000F0CDFB05461CB10020694600F0DAFB46
:1006500028467CBDD50700000FB41CB5084B06AA80
:100660007B4469460090059800F0B9FB04460020E1
:10067000694600F0C7FB20461CBC5DF814FB000077
:10068000A107000070B50C460546012A05D0287860
:10069000800600D5EA69002302E0012305E05B1C27
:1006A000934202D2E05C0028F9D1A869E618C01A8A
:1006B000A861286A18442862284600F0E4FA04E099
:1006C000D5E9012114F8010B9047B442F8D328462C
:1006D00000F0EFFA70BD00002DE9F041064600245D
:1006E00010687529314616A510D000F0F3FA0028DD
:1006F00002DA404213A507E031688A0701D512A546
:1007000002E0490704D511A5012401E000F0EBFA4D
:1007100000210A2206F1240709E0B0FBF2FCB0FB3D
:10072000F2F302FB1C00303078541846491C0028B4
:10073000F3D123462A463046BDE8F04100F0DCBA4A
:10074000000000002D0000002B0000002000000031
:100750002DE9F05F894604464FF0000ADFF874B1D6
:10076000FB44C0F820A02046E1688847002874D0E8
:10077000252806D0D4E901219047206A401C206238
:10078000F1E700265F462046E168884720280546B5
:1007900007DB312D05D2781910F8200C08B106437B
:1007A000F1E7B00701D526F00406C4F81CA0002725
:1007B000C4F818A02A2D09D0284613F0F7F938B349
:1007C00004EB8708303DC8F8185019E059F8041BAD
:1007D000204604EB87029161E1688847012F0546B6
:1007E00018D1E069002820DA26F020061DE0D8F8AC
:1007F000180000EB800005EB40003038C8F8180006
:100800002046E1688847054613F0D0F90028EED16C
:10081000012F0AD02E2D08D12046E16888477F1C81
:100820000546022F46F02006C4DBA069002803DA43
:10083000404246F00106A061F00701D026F0100604
:100840006C2D0BD0682D09D04C2D39D06A2D35D0A8
:10085000742D35D07A2D33D016E038E0E1682F467C
:1008600020468847B842054609D16C2F26D04FF460
:100870008060E168064320468847054604E06C2F07
:100880001AD04FF4807006430DB3A5F1410019282A
:1008900002D8203546F400664A462946204626609E
:1008A0004E46FFF753FD80B101280BD0F61D26F010
:1008B000070000F1080956E74020E4E78020D8E768
:1008C0000020D6E706F104094DE7284652E7206AE2
:1008D000BDE8F09FD234010010B5431C02E010F8CF
:1008E000011B71B18107FAD14FF0013202C88C1A95
:1008F0008C4314EAC211F9D0C01A0A0603D0C01EF4
:1009000010BDC01A10BD0A0401D0801E10BD09021E
:10091000FCD0401E10BD40EA010370B59B072ED1EC
:100920004FF00136042A2AD308C810C99D1B9D43E5
:10093000121F15EAC61517D0D8B2E1B2401A50EA14
:10094000056110D198B2A1B2401A50EA05410AD10E
:1009500023F07F4024F07F41401A50EA052102D164
:10096000180EA0EB146070BDA342DBD018BA21BAF8
:10097000884201D9012070BD4FF0FF3070BD0AB927
:10098000002070BD10F8013B11F8014B63B1A34288
:100990000AD1521E08D010F8013B11F8014B1BB1CF
:1009A000A34201D1521EEDD1181B70BD032A40F2A3
:1009B000308010F0030C00F0158011F8013BBCF101
:1009C000020F624498BF11F801CB00F8013B38BF19
:1009D00011F8013BA2F1040298BF00F801CB38BF27
:1009E00000F8013B11F0030300F02580083AC0F045
:1009F000088051F8043B083A51F804CBA0E80810ED
:100A0000F5E7121D5CBF51F8043B40F8043BAFF31F
:100A10000080D20724BF11F8013B11F801CB48BF79
:100A200011F8012B24BF00F8013B00F801CB48BFAF
:100A300000F8012B704710B5203AC0F00B80B1E8E8
:100A40001850A0E81850B1E81850A0E81850203A03
:100A5000BFF4F5AF5FEA027C24BFB1E81850A0E80C
:100A6000185044BF18C918C0BDE810405FEA827C26
:100A700024BF51F8043B40F8043B08BF7047D2073D
:100A800028BF31F8023B48BF11F8012B28BF20F8DE
:100A9000023B48BF00F8012B70474FF000020429C9
:100AA000C0F0128010F0030C00F01B80CCF1040C9D
:100AB000BCF1020F18BF00F8012BA8BF20F8022BD1
:100AC000A1EB0C0100F00DB85FEAC17C24BF00F877
:100AD000012B00F8012B48BF00F8012B70474FF0A5
:100AE000000200B5134694469646203922BFA0E87E
:100AF0000C50A0E80C50B1F12001BFF4F7AF09078A
:100B000028BFA0E80C5048BF0CC05DF804EB89007A
:100B100028BF40F8042B08BF704748BF20F8022BBD
:100B200011F0804F18BF00F8012B70470000000043
:100B300030B44FF0013C50F8042BCCFA52F451F889
:100B4000043BD51A20D1FCB950F8042BCCFA52F44E
:100B500051F8043BD51A17D1B4B950F8042BCCFA8C
:100B600052F451F8043BD51A0ED16CB950F8042B4D
:100B7000CCFA52F451F8043BD51A05D1002CDAD046
:100B800030BC4FF00000704729BAB1FA81F111F082
:100B90001801D1F120008440F2D1CA40CB4012F0BC
:100BA000FF0213F0FF0330BCD01A70477047704744
:100BB0007047000010B500F06BFA001D10BD00BFBB
:100BC000FD2F010000487047C80200200048704710
:100BD000C0020020704770477047704738B5044620
:100BE0000A4600206946AFF30080002808BF38BDE0
:100BF00002460099204600F04FFA012038BD01203E
:100C000000F070BEF8B5AFF30080054600200C463A
:100C1000102000BF0646A819A0420DD932466946E9
:100C20000020AFF30080070008BF00F05BFE0098D3
:100C3000A04218BF0546C419FFF7C4FF0560074668
:100C4000F01D20F007004619284600F00AF8B442CB
:100C500008BFF8BDA21B31463868BDE8F84000F077
:100C60001BBA00210160C0E90110704710207047D5
:100C700010B5FFF7ABFF006810BD10B50446FFF7D5
:100C8000A5FF046010BD70B5044685690068C10603
:100C900001D5302600E02026C00707D070BDD4E97A
:100CA000012130469047206A401C20626D1EF6D517
:100CB00070BD70B5044685690078C00707D170BD66
:100CC000D4E9012120209047206A401C20626D1E3B
:100CD000F6D570BD09684A0501D540B27047C9050F
:100CE000FCD500B2704709684A0501D5C0B270470B
:100CF000C905FCD580B270472DE9F0470D469946ED
:100D00009246044600F124080168880604D5E0698B
:100D100021F01001216000E00120A84201DD471B05
:100D200000E00027A1697A1902EB0900081AA06106
:100D30002078C00602D42046FFF7A5FF002608E071
:100D4000D4E901211AF806009047206A401C761C5D
:100D500020624E45F4DB2078C0060AD52046FFF716
:100D600092FF06E0D4E9012130209047206A401C20
:100D70002062381EA7F10107F4DC07E0D4E9012165
:100D800018F805009047206A401C2062281EA5F133
:100D90000105F3DC2046FFF78CFF2078000602D522
:100DA0000220BDE8F0870120FBE711680268006AB5
:100DB000530501D508700AE0D30501D5088006E087
:100DC000130603D5C217C1E9000200E00860012044
:100DD0007047000001694A1C02610878704700B53D
:100DE0008FB0CDE901310021059105497944CDE964
:100DF000031011466846FFF7ABFC0FB000BD0000C2
:100E0000E5FFFFFF0A6802F8010B0A607047D1E9AD
:100E100000239A4202D2531C0B601070704710B529
:100E2000436913B1AFF3008001E0FFF72BFC012011
:100E300010BD127800F124010A7000224A700122CC
:100E4000EDE711684FF0FF32E9E700002DE9FF5FA1
:100E500015468A460446DFF8AC80F8440027D8E9F6
:100E600000103E46CDE9001010E03AF816106A4630
:100E700002A800F013FD411C07D02178890603D594
:100E8000E269391891420DD80744761C2078800613
:100E900002D5E069B84205DDAE42E6DB3AF816005D
:100EA0000028E2D1A069C01BA0612046FFF7EBFE3D
:100EB000D8E90010CDE90010002017E03AF818102A
:100EC0006A4602A800F0EAFCB0F1FF3F81460BD071
:100ED00000250DF1080B05E0D4E901211BF8050000
:100EE00090476D1C4D45F7D308F10100B042804694
:100EF000E4DB206A384420622046FFF7DAFEBDE8D2
:100F0000FF9F0000EA2D01002DE9F0418046D21D2F
:100F100022F007020025D2E90002F52915A614D017
:100F2000011E72F1000106DA0023D0EB030063EB2F
:100F3000020211A608E0D8F800108B0701D50FA611
:100F400002E0490701D50EA601251146002408F14B
:100F5000240704E000F0BAF830323A55641C50EA35
:100F60000102F7D12B46324621464046BDE8F0410A
:100F7000FFF7C2BE000000002D0000002B000000A3
:100F80002000000030B4002100F1240408E002F049
:100F90000705D208303542EA4372DB086554491C24
:100FA00052EA0305F3D10468002310A2250708D5EF
:100FB00004F020040C4304D0C46901230CA2641E75
:100FC000C46130BCFFF798BE10B5044621461068D6
:100FD000FFF789FE02462046BDE810400023D1E716
:100FE000D21D22F00701D1E90023CBE70000000069
:100FF00030000000F0B40D460188090502D5214CEF
:101000007C4402E01F4C7C440E34002100F1240695
:1010100008E002F00F071209E75D42EA03721B09BC
:101020007754491C52EA0307F3D1027800231207D0
:1010300004D5702D06D009B1022311342246F0BC2C
:10104000FFF75ABE01231034F8E770B504460D4689
:1010500021461068FFF747FE024629462046BDE8B4
:1010600070400023C6E7D21D22F00703D3E9002316
:10107000C0E70368126843F0200303600823C361DC
:101080000023B7E74C2C010000487047C002002045
:1010900000487047E0020020034640688C46002864
:1010A00018BF88423CBF03464068F8D3186818440C
:1010B000884207D00CF1030020F00700001D411A00
:1010C000521A0146081D0A60FFF7FFB930B5B0F1AA
:1010D0000A0271F100034FEA900E4EEA817EB0EBF6
:1010E0000E0061EB91014FEA101E4EEA017E10EBFB
:1010F0000E0041EB11114FEA102E4EEA016E10EB7B
:101100000E0041EB11214FEA104E4EEA014E10EB5A
:101110000E0041EB1141401841F100014FEAD000AF
:1011200040EA41704FEAD1014FEA810444EA9074E9
:1011300010EB800544EB01046D1944EB0404521BD1
:10114000A3414FF0000348BF0A3200D530BD401C18
:1011500041F1000130BD2DE9FF4F0C461E464FF016
:10116000FF378BB0D2E90001DDF860800A908A4633
:10117000C1F30A5505B93D46002108464FF000006D
:10118000BAF1000F00F4400005DA00EB80004FF4E4
:10119000400101EA50004FEA9059B9F1010F00DD1A
:1011A000B9460A9850EA4A000ED044F61050A5F20B
:1011B000FF3545432F14B8F1000F1ED07542291E8C
:1011C0001EDDC9F100021CE0B8F1010F4FF0000074
:1011D00001D0302103E0F24305E02154401CB0422D
:1011E000FBDB30460022002121540B99C1F8088016
:1011F000C1E900200FB0BDE8F08FBD1B6D1CDEE71C
:101200004A4600DA694206A800F0DAFB06AB93E82A
:10121000070003AB83E8070050460A9911F0A4FECB
:101220008DE80700A0F500501F3800900398002DAE
:101230000ADD42F21F014A460844002303A9039035
:10124000684612F00DF909E0A0F500504A461F3833
:10125000002303A90390684612F017F98DE80700F0
:101260000004000C03D04FF0FF30410800E01046AE
:10127000B8F1000F03D00022009215461EE0751E43
:1012800005D4FFF723FF303262556D1EF9D5B34602
:101290000122084302D000227F1C04E0207830287D
:1012A00001D100227F1E002A099784D01DE0112D54
:1012B00007DAFFF70BFF303262556D1C50EA01026E
:1012C000F5D1084302D00098C8B10EE00021681E95
:1012D00005E0235C625C63542254401E491C814239
:1012E000F7DBAB46A81B401E0990002004F80B005A
:1012F0000B98099AC0F80880C0E9002B7AE71126FC
:101300004FF0000857E72DE9F04F88460446D21DFC
:1013100022F0070191B0D1E90001CDE90A0112F0F4
:10132000EBF902460B98C00F01D02D2007E0206892
:10133000810701D52B2002E0202101EAC000032A09
:10134000099001D0072A05DB03464146204600F0FC
:10135000F7FA0BE12078800601D5E06900E006206D
:10136000B8F1650F814606D0B8F1660F18D0B8F114
:10137000670F70D131E00020B9F1110F009001DB4F
:10138000112301E009F101030AAA01A90CA8FFF742
:10139000E2FEDDE90C70002609F10105834647E015
:1013A00001204B4600904FF000470AAA01A90CA863
:1013B000FFF7D1FEDDE90DB00C995D46002610B9AE
:1013C00009F101000D18B9EB050003D4C0F1FF3697
:1013D00009F10105A5EB09002BE0B9F1010F01DAD4
:1013E0004FF001090020B9F1110F0090484601DDCE
:1013F000112300E003460AAA01A90CA8FFF7ABFEDF
:10140000DDE90C704D4600268346207800070AD49B
:10141000AB4500DA5D4601A8012D04DD411911F844
:10142000011C302907D04F4502DA17F1040F04DA06
:10143000012082460FE06D1EEEE7002F02DCED1B5F
:101440003E4403E0781CA84200DD7D1CB81B00F17F
:10145000010A4FF000472078000703D4AA4501DBBA
:101460004FF0FF3A0021B7F1004F0DF143088DF81E
:10147000431024D002202B23002F01DA7F422D239A
:101480000A21021EA0F1010000DC5FB197FBF1FC14
:1014900097FBF1F201FB1C7C17460CF1300C08F8AD
:1014A00001CDEEE7A8F1010003702188090501D5FF
:1014B000452100E06521A0F1010800F8011C099810
:1014C0000FA9A1EB0807FF1D00B10120411901EB95
:1014D000EA70A1693844081A401EA0612078C0064D
:1014E00002D42046FFF7CFFB099828B1D4E90121A7
:1014F0009047206A401C20622078C00622D52046F2
:10150000FFF7C1FB1EE0002E04DBB34502DD01A89E
:10151000805D00E03020D4E901219047206A401C22
:101520002062761CAAF101005FEA000A0AD1FFF7E7
:10153000AFFDC0680168405CD4E901219047206A92
:10154000401C2062281EA5F10105DCDC07E0D4E97F
:10155000012118F8010B9047206A401C2062381EB8
:10156000A7F10107F3DC2046FFF7A3FB032011B02E
:1015700041E600002DE9F04F04460D46D21D22F051
:10158000070089B0D0E900974846394612F0B4F810
:101590000246F80F01D02D2307E02068810701D50E
:1015A0002B2302E0202101EAC0038DF820300BB18B
:1015B000012000E00020032A824601D0072A04DB34
:1015C0002946204600F0BCF93FE12078800601D48E
:1015D0000D2500E0E569C7F30A560D2D49DA002113
:1015E0004FEA175B08464FF00000002F00F4400060
:1015F00007DA00EB80004FF4400100EBD07001EA05
:1016000060008115012901DD4FF0FF3100224FEA12
:10161000850CBCF1180F06D31346ACF118004FF03F
:101620008052C24003E04FF4801323FA0CF30CF114
:101630000C0CBCF1200F04D3ACF1200C09FA0CF017
:1016400001E007FA0CF000294FF0004801DD18B95D
:101650000FE00ED140450CD319EB02095F4121B9CF
:10166000404502D19F4329EA0209BBEB175F00D036
:10167000761C2088000502D57B48784402E07A4831
:101680007844193808AA302302F80A30037C0AF19A
:101690000101002E0AF1020A53546A4602DC4FF09F
:1016A000300101E04FF031014FF001088DF80010DA
:1016B00002D0A6F2FF3603E059EA470100D06B4E94
:1016C000002D02DC2178090704D54FF002082E21F5
:1016D0008DF80110C44600210BE0C7F303433F011E
:1016E000C35C491C6D1E02F80830052908F1010889
:1016F00001DA002DF1DC00210CE000EB1973491C2C
:101700001B786D1E082902F808304FEA091908F104
:10171000010801DA002DF0DC21688B0602D516E005
:10172000A8F10108E04505DD02EB080313F8013CD0
:10173000302BF5D0B8F1000F09DD02EB080313F8E8
:10174000013C2E2B03D1090701D4A8F10108002D7B
:1017500005DD3E2102F808106D1E08F10108407CED
:10176000002E02F8080008F1010804DA2D20764264
:1017700002F8080002E02B2002F808000A214FF4CA
:101780007A70864208F101080BDB96FBF0F33033E8
:1017900002F8083096FBF0F308F1010800FB13662D
:1017A00001E0642E0CDB642096FBF0F3303302F88A
:1017B000083096FBF0F308F1010800FB136601E026
:1017C0000A2E06DB96FBF1F0303002F8080008F133
:1017D000010896FBF1F001FB1060303002F80800C0
:1017E000A16908F1010808EB050202EB0A00081ADA
:1017F000A0612078C00602D42046FFF744FA216A8F
:1018000008AE01EB0A00206204E0D4E9012116F8D9
:10181000010B9047BAF1010AF7D22078C00602D531
:101820002046FFF730FA6E4609E016F8010B3E2815
:101830000FD0D4E901219047206A401C2062B8F102
:101840000108F2D22046FFF734FA09B00320BDE8C0
:10185000F08F206A2844206203E0D4E9012130207F
:1018600090476D1EEBD3F8E72D26010002FCFFFF29
:1018700010B5436913B1AFF3008001E0FFF7E6FA5A
:10188000012010BD128800F1240182840022C2844C
:101890000122EDE711684FF0FF32E9E72DE9F04151
:1018A00016460C460546FFF785F9036893F80101D3
:1018B000012807D0FF2C12D8185D80B101202C70B0
:1018C000BDE8F081D3F807013246214603F2071341
:1018D000C7182846BC46BDE8F041002360474FF0DA
:1018E000FF30EDE710B500F0EBF8BDE8104000F078
:1018F000E2B870477546FFF7C7FBAE46050069467C
:10190000534620F00700854618B020B5FEF79CFD31
:10191000BDE820404FF000064FF000074FF00008F0
:101920004FF0000BAC46ACE8C009ACE8C009ACE82D
:10193000C009ACE8C00921F007018D4670470000DE
:101940002DE9F0411F46044603260168072A01F4E9
:10195000006004DB08B116A505E016A503E008B198
:1019600015A500E015A521F010002060A069C01E9B
:10197000A0610FB1401EA0612046FFF784F94FB16E
:10198000D4E9012138469047206A401C2062C01CDF
:10199000206206E0206AFAE7D4E9012115F8010B7C
:1019A0009047761EF8D22046FFF783F9BDE8F08114
:1019B0004E414E006E616E00494E4600696E6600F3
:1019C0002DE9F047814616468AB0354878440DC85F
:1019D0008DE80D0032487844801C03AC0DC884E8C3
:1019E0000D0041F69B300844372190FBF1F290FB4B
:1019F000F1F5A5F1800501FB12041B3C02D5644200
:101A0000012000E00020DFF898A080460027FA447B
:101A1000AAF1BE0A0EE0E0070AD03246684607EB9C
:101A2000470101230AEB810111F02FFD8DE807002A
:101A300064107F1C002CEED1194F7F44AE3F19E09B
:101A4000E80715D007EB04100DF1180A90E80E0016
:101A50008AE80E00C068F04201D198190890324619
:101A6000012306A903A811F010FD03AB83E80700CA
:101A70006D10641C002DE3D14FF00103324669461E
:101A8000B8F1000F03A802D011F0EAFC01E011F058
:101A9000FCFCC9E90001C9F808200AB0BDE8F087DC
:101AA0006C23010010B50446AFF300802046BDE86A
:101AB0001040FEF7B4BC002801D000F029B87047F0
:101AC00010B5012805D0002103A000F027F801205F
:101AD00010BD09A1F8E7000053494752544D454D48
:101AE0003A204F7574206F662068656170206D65BF
:101AF0006D6F7279000000003A2048656170206DBA
:101B0000656D6F727920636F7272757074656400B1
:101B100001491820ABBEFEE72600020070B505465D
:101B20000C460A2000E06D1C00F011F835B1287851
:101B30000028F8D102E0641C00F009F814B1207804
:101B40000028F8D1BDE870400A20AFF3008008B546
:101B500069468DF800000320ABBE08BD2DE9FE4F9D
:101B6000012840F0A981DFF854638021DFF8500399
:101B7000DFF85023B0600FF039F90021DFF848A3F7
:101B80000FF2483780464FF0000B4FF00009002558
:101B9000B8F1000F00F082818021029550460BF1D0
:101BA0000304FEF79CFF58FA84F50521284607F048
:101BB00095FF052228463946FEF7ADFE38B10622CC
:101BC0002846C4A1FEF7A7FE58B1032516E0C54874
:101BD0000BF10804CAF80300C348CAF80000002546
:101BE00008E00BF10904DFF8E0A20125BB48BC497D
:101BF000CAE900105046FEF76FFEB08058FA84F034
:101C000010F0FDFE032D064604F1030B01D1012562
:101C10004EE00196F6B2632E12D0A848C08A8642E2
:101C20000ED00225A54EDFF8A0A280215046FEF777
:101C300056FF022D37D1B08A012834D1022546E063
:101C400058FA8BF010F0DBFE9C4F5FFA80F9B888F1
:101C5000A6A1FA8A4B46DFF870A204F1060B5044A5
:101C600011F058F85046FEF737FEB8800027A24B17
:101C700000E00137072F18D813F837104945F8D17D
:101C800003EBC7014A68002A45D0052F4CD34B7897
:101C90009D4249D00525DFF830A28CA7802150460F
:101CA000FEF71DFF0BE0019E08E00425019E87A7BB
:101CB000DFF814A280215046FEF711FFF6B250461D
:101CC000009594A132464B4611F024F87B4E5046C5
:101CD000FEF702FE0104B08006D082B2934842F2C1
:101CE0001073514606F079FA70780130C1B2707005
:101CF000182900F2DA805FFA8BF0B268C8F180012F
:101D0000081A10446F4A81B258FA8BF00FF06EF83F
:101D1000804601213CE7DFF8B0A17CA11AFA80F0EF
:101D200010F0F8FF69A7B3E0012D13D0002D67A7CD
:101D300030D18978DFF890A10A29029D00F2A980AC
:101D4000DFE801F0062B33383DA7A7A72FA74400F3
:101D5000127823E05FFA8BF0DFF86CA104F1070B37
:101D600018F8000059A72C2843D18878092800F2D8
:101D70007580DFE800F005404C5867737373737625
:101D800058FA8BF05FFA8BF4154610F038FE287085
:101D9000C2B239E0DFF830A17AE012881AFA80F096
:101DA0000BE01AFA80F057A10DE0B2F900201AFA00
:101DB00080F007E01AFA80F01268514903E01AFA3D
:101DC00080F012684D4910F0A5FF62E05FFA8BF0D9
:101DD00004F1070B18F800002C280AD137495FFAE4
:101DE0008BF04988081A81B258FA8BF09047054663
:101DF0004FE0062552E758FA8BF05FFA8BF4154650
:101E000010F0FDFD288082B22C49898816E058FA2E
:101E10008BF05FFA8BF4154610F0F1FD288002B2CA
:101E2000264989882AE058FA8BF05FFA8BF4154628
:101E300010F0E5FD21490246898828600AEB01007F
:101E40002F491EE058FA8BF05FFA8BF4154610F01C
:101E5000D6FD1A490246898828600FE05FFA8BF4A4
:101E600011E0164D5FFA8BF46888001B81B258FAB6
:101E70008BF09047A9880246DFF84CA00AEB0100DE
:101E80001E4910F047FF08EB0400FEF725FD8344D0
:101E9000029D0DB1094EC8E6002517E770887F281E
:101EA00003D8012918BFBDE8FE8FB0688021FEF776
:101EB000F4FD002070803070BDE8FE8FA00300208C
:101EC000E00400205277010860040020524541449C
:101ED0003D00000057524954453D000054453A002A
:101EE0002B57524941443A002B5245412530326428
:101EF0002C253033643D0000243E0108487701085A
:101F00004D77010825730D0A000000004E554C4C1A
:101F10000D0A00002B4552524F523A253032642CA4
:101F2000253033643D25640D0A000000A4A4002080
:101F3000284902460846114605F040B880B52548B4
:101F400005F04DF8043818BF012080BD80B500F0C1
:101F500013F8012804D11F4805F020F910B180BD05
:101F6000022080BD1B484FF4804104F0D3FE0028BE
:101F700018BF012080BD00BFE0B5012001218DF810
:101F80000700054802F0CEFA10B100208DF80700D6
:101F90009DF8070002B080BD000C0258E0B59446E1
:101FA00000930A4601460B48634605F091FA002863
:101FB00018BF012002B080BDE0B5944600930A46E8
:101FC00001460448634605F055FB002818BF012070
:101FD00002B080BD9CA30020FEE7002070470020D7
:101FE0007047000010B51D4C00220549204608F03E
:101FF00026FD0449204608F01CFD002010BD00BF4E
:10200000640F00206407002070B50546134E0C468F
:102010003046294608F00DFD304608F0EDFC2288D8
:10202000294602480FF0BEFA002070BDA802002029
:102030000A4AD2F81822D2F81422002A1CBF012022
:10204000704710B5054C0A460146204608F0F7FCDB
:102050002046BDE8104008F033BD00BFE49B0020DF
:10206000806B816C496D022906D0012180F8351002
:10207000C16C41F04001C16400F0D4BC10B5846B68
:10208000A26BA06C002A01680B6803F400220BD03D
:10209000002AA26B14D012F0010211D1C968E26BC0
:1020A00001EBC201002213E0C2B90868000317D493
:1020B000E06BD4E9103202EB80000861A3630FE00B
:1020C0000A6812030CD40969E26B01EBC201012218
:1020D00000F0B0FDA06B0138A06301E0606CC86047
:1020E000A06B216C88420AD12068C16841F00101CF
:1020F000C1600068800744BF012084F8350010BD2E
:10210000184800F091BC00BF70B5002B18BF012328
:10211000002A18BF0122002918BF0121114C0025F7
:102120005B01114E26606560C901A36004F10C03D8
:10213000920126C3A561C4E908053848C4E90A55D7
:102140002563A0648463204600F060FC204600F014
:10215000B5FC30B132484FF4F871BDE8704009F079
:10216000C5BE70BD089E002000000248124801F064
:1021700031BA00BF10B5104CBA4828212060402069
:1021800061600021A0604FF48060C4E903104FF447
:102190000030C4E90511E161C4E90801204601F0FD
:1021A000D1FC20B11E484FF4C67109F09FFE0348D0
:1021B0008467A06310BD00BF589E00201CA40020AF
:1021C000164801F007BA00BF80B51448AE494B224B
:1021D00001600021C0E901214FF48062C1604FF429
:1021E000805302614FF48042C0E905324FF400325F
:1021F000C16104230262032243624FF40003C0E979
:102200000A23016301F09EFC30B105484FF4E771E9
:10221000BDE8804009F06ABE80BD00BFD09E0020AE
:102220009B7B010801688F4A914223D08E4A9142DC
:102230001CBF8E4A91421DD08D4A91421CBF8D4ACF
:10224000914217D08C4A91421CBF8C4A914211D0C6
:102250008B4A91421CBF8B4A91420BD08A4A9142D1
:102260001CBF8A4A914205D0894A91421CBF894AC3
:1022700091421AD180B56FF00F02DFF848C052FAD0
:1022800081F21823B2FBF3F340F2FF3E21EA0E0184
:102290005F2A03F007031CF80330C36588BF0431CD
:1022A000BDE880408165084670477B4A9142E1D095
:1022B0007B4A9142DED0794A9142DBD021F0FF0186
:1022C000F0E700BF784401080268EB498A421F49E1
:1022D0001CBFEA4B9A4205D0E94B9A421CBFE94B1E
:1022E0009A4213D1D3B2A3F108021423B2FBF3F341
:1022F00001F1800201EB830103F01F0301664FF03F
:10230000010C0CFA03F1C0E919217047DE4B9A4227
:10231000E8D0E04B9A42E5D0DC4B9A42E2D0A1F5FE
:102320005B7CD3B26245DED0A3F110011823B1FB70
:10233000F3F1084B03F1AA0C9A420B4688BF08330D
:10234000624528BF0B460249D2E700BF0058025839
:10235000000802400F04024001790139072988BFB3
:1023600070470268C44B9A421CBFC44B9A4205D0C6
:10237000C34B9A421CBFC34B9A420BD18A000E4BEF
:102380004FF0010C1A444033C2660CFA01F1C0E967
:102390001C317047BC4B9A42F0D0BE4B9A42EDD0F4
:1023A000BA4B9A42EAD0BA4B9A424FEA8102E6D03F
:1023B000004BE5E7000902400059025810B5D0F87B
:1023C00000C09D4CA44564463BD09C4CA44564464B
:1023D00037D09B4CA445644633D09A4CA445644600
:1023E0002FD0994CA44564462BD0984CA445644604
:1023F00027D0974CA445644623D0964CA445644608
:102400001FD0954CA44564461BD0944CA44564460B
:1024100017D0934CA445644613D0924CA44564460F
:102420000FD0914CA44564460BD0904CA445644613
:1024300007D08F4CA445644603D08E4CA4450DD1E3
:102440008C4C63608068402802D1CCF8082002E000
:10245000CCF808101146CCF80C1010BDCCF80430A4
:10246000F0E700BF10000240280002404000024098
:10247000580002407000024088000240A000024064
:10248000B800024010040240280402404004024008
:10249000580402407004024088040240A004024034
:1024A000B8040240F0B5D0F800C0634CA445D0F8A1
:1024B00058E03BD0614DAC451CBF614DAC4535D0BB
:1024C000604DAC451CBF604DAC452FD05F4DAC4559
:1024D0001CBF5F4DAC4529D05E4DAC451CBF5E4D69
:1024E000AC4523D05D4DAC451CBF5D4DAC451DD00A
:1024F0005C4DAC451CBF5C4DAC4517D05B4DAC454D
:102500001CBF5B4DAC4511D05A4DAC451CBF5A4D5C
:10251000AC450BD0594DAC451CBF594DAC4505D011
:10252000584DAC451CBF584DAC456DD1C66ED0E979
:102530001957002E6F6002D0D0E91C566E60A4457A
:1025400029D03E4CA4451CBF3D4CA44523D03D4C56
:10255000A4451CBF3C4CA4451DD03C4CA4451CBF0D
:102560003B4CA44517D03B4CA4451CBF3A4CA4455A
:1025700011D03A4CA4451CBF394CA4450BD0394C62
:10258000A4451CBF384CA44505D0384CA4451CBFFD
:10259000374CA4451CD1C46D3F2504F01F0480684E
:1025A00005FA04F4CEF80840DCF8007027F4802720
:1025B000CCF800704028CCF8043004D1CCF80820C6
:1025C000CCF80C10F0BDCCF80810CCF80C20F0BD05
:1025D0002F4CA4451CBF284CA4450BD0274CA44528
:1025E0001CBF274CA44505D0264CA4451CBF264C37
:1025F000A44516D1C46D012504F01F04806805FAB6
:1026000004F4CEF80440D5E7204DAC453FF48EAF3E
:102610001F4DAC453FF48AAF1E4DAC453FF486AF2D
:10262000D5E71A4CA445E5D01A4CA445E2D0114C8C
:10263000A445B0D0CBE700BF100002402800024004
:1026400040000240580002407000024088000240F2
:10265000A0000240B80002401004024028040240DA
:1026600040040240580402407004024088040240C2
:10267000A0040240B8040240085402581C540258F6
:102680003054025844540258585402586C5402585A
:10269000945402588054025870470022AFF30080CF
:1026A00080B5DFF848E09EF80930002B01D001200A
:1026B00080BD9EF80930844600200EF803009EF885
:1026C00009300EEB8303C3F804C09EF8093073444D
:1026D0001A729EF80920531C30328EF809300A70A5
:1026E00042F63A72A1F80120C87080BD6C970020B4
:1026F00010B5CB072F4C0CD0236823F4E66323607E
:1027000042EA0023D4F800C043EA0C0343F08403F8
:10271000236089070ED5D4F8001142EA002021F485
:10272000E661C4F80011D4F80011084340F08400B9
:10273000C4F8000110BD00BF01F00302032A1D4AC6
:1027400016D1116821F030011160D2F8001121F08A
:102750003001C2F80011116801431160D2F8001174
:102760000843C2F80001D06840F01000D060704704
:10277000CB070AD0136823F03003136013680343B8
:102780001360136843F088031360890758BF7047CC
:10279000D2F8001121F03001C2F80011D2F8001176
:1027A0000843C2F80001D2F8000140F08800C2F8E6
:1027B000000170470C2000522DE9F04788462C4F4D
:1027C0003C6805462B48814601F0C4FEB8F1020F73
:1027D000064609D1D7F8000107F5807400EA090020
:1027E000BA4600F1004903E009EA0409BA463C464A
:1027F0006F1C206840070DD5002FFAD001F0AAFE0B
:10280000002D01464FF0030002D0891BA942F0D9E8
:10281000BDE8F08729F0004070B11749174B8A696D
:1028200003EA090342EA09024B458A6110D10120FB
:10283000CAF80490BDE8F087B8F1010F0DD1DAF8BD
:102840000000C00311D54FF48030CAF804000CE03A
:10285000CAF804010120BDE8F087DAF80001C003DE
:1028600003D54FF48030CAF804010020BDE8F0879A
:10287000102000520000EE1774A600200F00EF1F7A
:102880002DE9F04F85B000265F4F4FF00708049602
:102890000120CDF80080CDE901065A4800F5006915
:1028A00003966D46044648462946B847072101224B
:1028B000484601F043FE4FF4406000900220CDE90D
:1028C0000106032004F5806B03905846CDF8108074
:1028D00029464FF0030AB8474FF4405000900120BA
:1028E00004F54068CDE90106404603962946B847FD
:1028F0004FF48050009058462946B8474FF4204086
:102900000090022001900520CDE9026A049058460B
:1029100029460224B8474FF4F850CDE90004CDE928
:10292000026A4FF00C0A4846CDF810A0294602244E
:10293000B8470420CDE9000403200296CDE9030A3C
:10294000404629460224B8470120CDE9000640460A
:102950002946B84773208DE851000D200396049056
:10296000284C04F580502946A246B84750200090D4
:1029700020462946B847C024484600942946B8470F
:10298000584600942946B8474FF4407000901220F2
:1029900001900124032002940390042004905846DF
:1029A0002946B8474FF4807000904FF00209504616
:1029B0002946CDE90196CDE90366B8474FF480601A
:1029C0008DE85100504603962946B8478020009074
:1029D00040462946B8474FF40070CDE900065046FE
:1029E00002962946B8474FF4C050CDE900090A20A5
:1029F000CDE90266049050462946B84705B0BDE8C7
:102A0000F08F00BF000002589943000810B504463B
:102A100000F0A1F800210020E16484F8351084F86A
:102A2000341010BD70477047B0B5044600680569A2
:102A300069070CD504214161E06C40F00200E064BC
:102A400084F83510A06C7949016500F0D5FCA80721
:102A50000ED521680222A06C4A61E16C41F00101AF
:102A6000E164042184F835107049016500F0C4FC6C
:102A7000E80605D5206810214161204600F06AF87B
:102A8000280705D5206808214161204600F0D0F8CC
:102A9000E80700D1B0BD20680168890703D5C16887
:102AA00021F01E01C160C16821F00101C160012156
:102AB00041612046BDE8B040FFF7B5BF88B170B5B1
:102AC000044690F8350010B9204600F045F8022081
:102AD00084F83500A16931B14FF0000EC4F824E04C
:102AE00003E001207047D4F824E094E80910E2687C
:102AF000174E1943102B056805EA06050560656940
:102B000041EA0501256941EA0201226A41EA05011B
:102B1000E66A41EA0C0141EA0201A26A41EA0E01B9
:102B200041EA0201226B41EA0601066841EA02011C
:102B300041EA0601016001D1E1698161C16841F0AA
:102B40001E01C16000200121E06484F8351070BDD1
:102B500007F0E0FF70477047704700007CB50446FF
:102B600090F8340001284FF002005AD04FF0010EC7
:102B700084F834E0002684F83500B6EB134FD4F81F
:102B800000C0A06CDCF8005045F48045CCF8005043
:102B9000DCF8005025F00205CCF80050DCF80050BD
:102BA00041EA0501214DCCF800101F49C163C0E97D
:102BB0001356A663E663C4E9106604D10CF128013C
:102BC00001F076F91DE04164C4F838E0E363626423
:102BD00005E0E16B4908E163A16B4900A163E16B8A
:102BE000B1F5803FF5D2A16B0239A163A16B2164DD
:102BF000E16B02EB8103E66B0CF12801009600F01B
:102C00007BF828B14020E064012084F8350005E01D
:102C10002068016841F0010101600020002184F872
:102C2000341002B070BD00BF7D2000086120000894
:102C3000704700000368204883421CBF1F4883423E
:102C40001DD01F4883421CBF1E48834217D01E4818
:102C500083421CBF1D48834211D01D4883421CBFC4
:102C60001C4883420BD01C4883421CBF1B48834234
:102C700005D01B4883421CBF1A48834209D112B1B8
:102C80004FF0100C01E04FF00C0C002043F80C103A
:102C9000704715488342F2D014488342EFD014485D
:102CA0008342ECD013488342E9D04FF0100C002A45
:102CB00008BF4FF00C0CE8E710000240280002406B
:102CC000400002405800024070000240880002406C
:102CD000A0000240B8000240100402402804024054
:102CE000400402405804024070040240A004024024
:102CF00088040240B80402402DE9F8430446806885
:102D0000802804D14FF480706065012067E194F859
:102D10003400012801D1022061E1012084F834004F
:102D200094F83500012840F05D810220D54DDDF892
:102D300020C084F83500002060654FF03F0E206809
:102D40004FF00808A946A8424FF4802724D0CE4D62
:102D5000A8421CBFCD4DA8421ED0CD4DA8421CBFDD
:102D6000CC4DA84218D0CC4DA8421CBFCB4DA84298
:102D700012D0CB4DA8421CBFCA4DA8420CD0CA4DA0
:102D8000A8421CBFC94DA84206D0C94DA8421CBFCD
:102D9000C84DA84240F0298105462E683E432E606A
:102DA0000361E06D00F01F00A36D0EFA00F043F820
:102DB000080020466346FFF701FB20684F46484560
:102DC0003CD0B14988421CBFB049884236D0B04996
:102DD00088421CBFAF49884230D0AF4988421CBFEF
:102DE000AE4988422AD0AE4988421CBFAD498842CC
:102DF00024D0AD4988421CBFAC4988421ED0AC49A2
:102E000088421CBFAB49884218D0AB4988421CBFDE
:102E1000AA49884212D0AA4988421CBFA9498842BF
:102E20000CD0A94988421CBFA849884206D0A849AD
:102E300088421CBFA749884240F0FB80E26ED4E97B
:102E40001913002A4B6002D0D4E91C124A60B84220
:102E500001463CD08C498842014638D08B49884293
:102E6000014634D08A498842014630D08949884297
:102E700001462CD088498842014628D0874988429B
:102E8000014624D086498842014620D0854988429F
:102E900001461CD084498842014618D083498842A3
:102EA000014614D082498842014610D081498842A7
:102EB00001460CD080498842014608D07F498842AB
:102EC000014604D07E49884240F0BF807C490968B1
:102ED0000B2262F344010160416941F080014161CC
:102EE000216C09B9A16C19B1016841F008010160B8
:102EF000B8423BD0644988421CBF6449884235D0FF
:102F0000634988421CBF634988422FD06249884286
:102F10001CBF6249884229D0614988421CBF61496F
:102F2000884223D0604988421CBF604988421DD036
:102F30005F4988421CBF5F49884217D05E4988427A
:102F40001CBF5E49884211D05D4988421CBF5D4963
:102F500088420BD05C4988421CBF5C49884205D03E
:102F60005B4988421CBF5B4988427DD1216E0A685B
:102F7000D20303D50A6842F480720A60E16E19B187
:102F80000A6842F480720A60B84223D03E498842FF
:102F90001CBF3E4988421DD03D4988421CBF3D4967
:102FA000884217D03C4988421CBF3C49884211D016
:102FB0003B4988421CBF3B4988420BD03A49884272
:102FC0001CBF3A49884205D0394988421CBF39495B
:102FD00088421ED1016841F001010160002001B06A
:102FE000BDE8F0834FF400608EE6334DA8423FF415
:102FF000D3AEFC4DA84205463FF4CFAEFA4DA842F1
:1030000010D14FF03F0EF84D4FF008084FF48027D5
:10301000C3E6F3498842DDD0F3498842DAD0F1496A
:103020008842D7E74FF0010E4FF0040848F220071E
:10303000B2E6EE4988423FF401AFED4988423FF4E1
:10304000FDAEEC4988423FF4F9AE0168052262F317
:1030500043010160216C19B9A16C00293FF448AF0C
:10306000016841F0040142E7E04988423FF47EAF45
:10307000DF4988423FF47AAFDE4988423FF476AFB9
:10308000A8E700BF100002402800024040000240B4
:10309000580002407000024088000240A000024038
:1030A000B8000240100402402804024040040240DC
:1030B000580402407004024088040240A004024008
:1030C000B8040240085402581C54025830540258A4
:1030D0004454025858540258F8B5044601F03AFADC
:1030E000002C00F0B280054694F83500022840F02C
:1030F000A7802768AD4EB74238463CD0AC488742DF
:10310000384638D0AB488742384634D0AA48874240
:10311000384630D0A948874238462CD0A848874244
:10312000384628D0A7488742384624D0A648874248
:10313000384620D0A548874238461CD0A44887424C
:10314000384618D0A3488742384614D0A248874250
:10315000384610D0A148874238460CD0A048874254
:10316000384608D09F488742384604D09E48874258
:1031700040F0EC809C48016821F01E0207F1140128
:1031800002606FF080000A68B74200EA020008603F
:103190003CD0F84887421CBFF748874236D0F748F2
:1031A00087421CBFF648874230D0F64887421CBF92
:1031B000F54887422AD0F54887421CBFF448874229
:1031C00024D0F44887421CBFF34887421ED0F348FE
:1031D00087421CBFF248874218D0F24887421CBF82
:1031E000F248874212D0F04887421CBFF04887421D
:1031F0000CD0F04887421CBFEF48874206D0EF480A
:1032000087421CBFEE48874240F0B980206E0168BB
:1032100021F480710160386820F00100386038685E
:10322000C00715D001F096F9401B0628F7D32020DF
:103230006065002084F83400032084F8350004E041
:1032400080206065002084F83400012001B0F0BDCA
:103250002068B0421CBFC74988421DD0C649884279
:103260001CBFC649884217D0C54988421CBFC54902
:10327000884211D0C44988421CBFC44988420BD03F
:10328000C34988421CBFC349884205D0C24988420D
:103290001CBFC24988425DD1A16DE26D3F2302F09F
:1032A0001F0203FA02F28A60B0423BD0B149884261
:1032B0001CBFB149884235D0B04988421CBFB049D3
:1032C00088422FD0AF4988421CBFAF49884229D0DD
:1032D000AE4988421CBFAE49884223D0AD498842DE
:1032E0001CBFAD4988421DD0AC4988421CBFAC49C7
:1032F000884217D0AB4988421CBFAC49884211D0E4
:10330000A94988421CBFAA4988420BD0A9498842D2
:103310001CBFA949884205D0A84988421CBFA849BA
:10332000884239D1E06ED4E9191200284A6006D0EB
:10333000016821F480710160D4E91C014160002022
:10334000012184F8340084F835107FE76FF00E0017
:10335000394618E7924988429ED0944988429BD0CA
:103360009049884298D090498842A16D95D0E26DED
:10337000012302F01F0203FA02F24A6094E7914827
:1033800087423FF443AF904887423FF43FAF8F48B6
:1033900087423FF43BAF3EE78A498842C2D08A4920
:1033A0008842BFD089498842BCD0C8E7100002409B
:1033B00028000240400002405800024070000240D5
:1033C00088000240A0000240B80002401004024001
:1033D00028040240400402405804024070040240A5
:1033E00088040240A0040240B80402406C54025811
:1033F000945402588054025810B5002841D090F8D7
:10340000351002293BD10168594A914223D0594BCA
:1034100099421CBF584B99421DD0584B99421CBF32
:10342000574B994217D0574B99421CBF564B994264
:1034300011D0564B99421CBF554B99420BD0554B5E
:1034400099421CBF544B994205D0544B99421CBF22
:10345000534B99423CD10423914280F835301CBF34
:103460004448814205D0444881421CBF43488142C0
:103470000AD1086820F001000860002102E08021E4
:1034800041650121084610BD3D488142F1D03D48CB
:103490008142EED03C488142EBD03C4881421CBF87
:1034A0003B488142E5D03B4881421CBF3A488142BB
:1034B000DFD03A4881421CBF39488142D9D03948CF
:1034C0008142D6D038488142D3D038488142D0E7B3
:1034D000344B9942BFD0344B9942BCD0334B9942C4
:1034E000B9D00A6822F00E020A60314A91420A6895
:1034F00022F001020A600BD02E4A91421CBF2E4AD4
:10350000914205D02D4A91421CBF2D4A914225D1AE
:10351000D0E916C2D0E9183E196802F01F0221F462
:1035200080710124196004FA02F1CCF80410816E54
:10353000CEF80410C16E31B10A6822F480720A60BC
:10354000D0E91C124A600021012280F8341080F872
:103550003520026D002A95D090478EE7194A914296
:10356000D6D0194A9142D3D0184A9142D0D0EAE736
:103570001000024028000240400002405800024073
:103580007000024088000240A0000240B8000240E3
:103590001004024028040240400402405804024043
:1035A0007004024088040240B8040240A0040240B3
:1035B000085402581C5402583054025844540258BB
:1035C000585402586C54025894540258805402586B
:1035D000406D70472DE9FC410021C54F0191044623
:1035E000DFF808150068A56DB842D1F800802E6894
:1035F00029682AD0BF4A90421CBFBF4A904224D0BB
:10360000BE4A90421CBFBE4A90421ED0BD4A904264
:103610001CBFBD4A904218D0BC4A90421CBFBC4A55
:10362000904212D0BB4A90421CBFBB4A90420CD081
:10363000BA4A90421CBFBA4A904206D0B94A904258
:103640001CBFB94A904240F09F81E16D082201F011
:103650001F018A40324236D0BC46B8424FF00403C4
:1036600024D0A44FB8421CBFA34FB8421ED0A34FD2
:10367000B8421CBFA24FB84218D0A24FB8421CBFDC
:10368000A14FB84212D0A14FB8421CBFA04FB842C0
:103690000CD0A04FB8421CBF9F4FB84206D09F4FDE
:1036A000B8421CBF9E4FB84240F0968107681F4247
:1036B000674608D0036823F004030360AA60626DC4
:1036C00042F00102626501228A4032422ED0B842A5
:1036D00024D0884B98421CBF874B98421ED0874B02
:1036E00098421CBF864B984218D0864B98421CBF0C
:1036F000854B984212D0854B98421CBF844B984210
:103700000CD0844B98421CBF834B984206D0834B0D
:1037100098421CBF824B984240F06B8143691B0664
:1037200004D5AA60626D42F00202626504228A40FA
:1037300032422ED0B84224D06E4B98421CBF6E4B02
:1037400098421ED06D4B98421CBF6D4B984218D0CA
:103750006C4B98421CBF6C4B984212D06B4B9842FA
:103760001CBF6B4B98420CD06A4B98421CBF6A4BF3
:10377000984206D0694B98421CBF694B984240F072
:10378000468103689B0704D5AA60626D42F004027B
:103790006265102202FA01F131423FD0B8424FF087
:1037A000080224D0D24B98421CBFD24B98421ED064
:1037B000D14B98421CBFD14B984218D0D04B984265
:1037C0001CBFD04B984212D0CF4B98421CBFCF4B5E
:1037D00098420CD0CE4B98421CBFCE4B984206D09C
:1037E000CD4B98421CBFCD4B984240F01E810368E0
:1037F000134213D0A96001684903016806D4C905C2
:1038000006D4016821F00801016001E0080301D439
:10381000216C00E0A16C09B120468847E06D00F002
:103820001F01202000FA01F2324200F0838020685C
:103830001023B84224D0AE4EB0421CBFAD4EB042B1
:103840001ED0AD4EB0421CBFAC4EB04218D0AC4EF4
:10385000B0421CBFAB4EB04212D0AB4EB0421CBF08
:10386000AA4EB0420CD0AA4EB0421CBFA94EB042E4
:1038700006D0A94EB0421CBFA84EB04240F0E28034
:1038800007681F4256D0AA6094F83520042A0268BF
:1038900019D122F016020260426922F080024261D0
:1038A000226C0AB9A26C1AB1026822F00802026006
:1038B0003F208840A860002084F83400012084F86C
:1038C0003500216D5BE0510301680CD4C9052DD48E
:1038D000016821F010010160002084F8340001200B
:1038E00084F8350022E0080320D4616C1FE000BF9B
:1038F00010000240280002404000024058000240F0
:103900007000024088000240A0000240B80002405F
:1039100010040240280402404004024058040240BF
:103920007004024088040240A0040240E16B09B127
:1039300020468847606D28B3606DC0071ED04FF4E5
:103940001650B8FBF0F1042084F8350020680268B6
:1039500022F001020260019A01328A42019202D8E9
:103960000268D207F7D1002184F834100068C0073C
:103970004FF0030008BF012084F83500E16C09B165
:1039800020468847BDE8FC81674A90421CBF674AD1
:1039900090420CD0664A90421CBF664A904206D0C4
:1039A000654A90421CBF654A904240F0928002688E
:1039B000E36D570703F01F0351D504279F4017EA13
:1039C00001064CD011046F6060D4910662D4016886
:1039D00021F0040101605DE0514FB8423FF466AE52
:1039E000504FB8423FF462AE554FB84218BF08235B
:1039F0005CE64B4B98423FF491AE4A4B98423FF401
:103A00008DAE4F4B98423FF489AE02688EE6444B30
:103A100098423FF4B6AE434B98423FF4B2AE484BA7
:103A200098423FF4AEAE0268B3E63D4B98423FF495
:103A3000DEAE3C4B98423FF4DAAE414B984218BFA1
:103A40000422D4E6364EB0423FF41AAF354EB042AF
:103A50003FF416AF3A4EB04218BF022310E7970763
:103A60001AD502279F4017EA010615D011046F608E
:103A700029D491062BD4016821F00A0101600020AD
:103A800084F83400012084F8350020E0D00301D40C
:103A9000A16C74E7216C72E712077FF573AF0822FF
:103AA0009A4011403FF46EAF0168012221F00E01EF
:103AB000016002FA03F068600020626584F8340057
:103AC00084F835205AE7D00301D4616C57E7E16BE5
:103AD00055E7F24A90423FF46AAFF14A90423FF410
:103AE00066AFF04988423FF4B0AD4BE710000020CC
:103AF000280002404000024058000240700002408E
:103B000088000240A0000240B800024010040240B9
:103B1000280402404004024058040240700402405D
:103B200088040240A00402409454025808540258E9
:103B30001C540258305402584454025858540258E5
:103B4000B8040240F8B5044600F004FD002C7BD018
:103B500005462068C24FB8422AD0C24988421CBFDD
:103B6000C149884224D0C14988421CBFC04988420B
:103B70001ED0C04988421CBFBF49884218D0BF49E7
:103B800088421CBFBE49884212D0BE4988421CBF31
:103B9000BD4988420CD0BD4988421CBFBC498842FF
:103BA00006D0BC4988421CBFBB49884240F0F38024
:103BB000002184F83410022184F83510016821F0C6
:103BC0000101016005E000F0C5FC401B052836D866
:103BD00020680168C907F6D10168B34A1140D4E9E9
:103BE000022311432269194363691143A2691943EE
:103BF000E36941EA0205616A2B43256A042943EA25
:103C0000050303D1D4E90B562B433343A74D2E684C
:103C1000B6F1005F1CD36568292D19D32F2D15D35C
:103C2000A5F13F06042E11D3472D11D3492D0DD3F5
:103C3000A5F14F06032E98BF43F4801308E020201F
:103C40006065032084F835000120A2E043F480136E
:103C500003600429436923F0070341EA030127D1E4
:103C6000D4E90A53002B41EA050121D0B2F5005FE7
:103C700006D08AB9022D12D0012D07D07DB117E0F0
:103C8000032D15D8DFE805F00E0B0E02A3F1C0726C
:103C9000B2FA82F2520904E0032D03D308D1C3F330
:103CA00000622AB140206065012084F8350070E090
:103CB00041612046FEF7B6FAE16D3F2201F01F0197
:103CC00002FA01F181602068B8423CD0654988421F
:103CD0001CBF6549884236D0644988421CBF64498C
:103CE000884230D0634988421CBF634988422AD049
:103CF000624988421CBF6249884224D06149884297
:103D00001CBF614988421ED0604988421CBF60497F
:103D1000884218D05F4988421CBF5F49884212D050
:103D2000604988421CBFF94988420CD0F849884252
:103D30001CBFF849884206D0F74988421CBFF749A2
:103D4000884240F080802046FEF7BEFAA0688028B6
:103D500002D10020606000E06068C2B2216E0138CC
:103D6000D4E9193707280A605F6009D82046FEF7B2
:103D7000F3FA04F16C0207CA002303604A6003E00F
:103D80000020C4E91B00606700200121606584F801
:103D9000351001B0F0BDE34988421CBFDB498842C1
:103DA0000BD0DB4988421CBFDA49884205D0DA498A
:103DB00088421CBFD949884239D1002184F8341087
:103DC000022184F835100168A2686FF31011A2F186
:103DD0008003B3FA83F35B09402AE2684FEA833336
:103DE00041EAD20108BF102322691943636941EAFD
:103DF000D201A26941EAD301E36941EAD201226A10
:103E000041EAD30141EA121140F808191421C0B265
:103E1000B0FBF1F08000E0652046FEF703FAE16DAB
:103E2000012201F01F0102FA01F141604BE7BC4998
:103E30008842C2D0BC498842BFD0B34988423FF4CF
:103E4000B7AE4020FCE6B64988423FF47CAFB549A6
:103E500088423FF478AFB44988423FF474AF93E7A7
:103E6000100002402800024040000240580002407A
:103E70007000024088000240A0000240B8000240EA
:103E8000100402402804024040040240580402404A
:103E90007004024088040240A00402406C5402589E
:103EA00080540258B80402403F8010FE0010005CAD
:103EB000B0B5002800F0E780054690F834000128EE
:103EC00001D10220B0BD012085F8340095F83500FD
:103ED000012840F0D280022085F835000020686576
:103EE0002868046824F0010404602846FEF7DAFA22
:103EF00028687649884202463CD0754A904202467C
:103F000038D0744A9042024634D0734A90420246F6
:103F100030D0724A904202462CD0714A90420246FA
:103F200028D0704A9042024624D06F4A90420246FE
:103F300020D06E4A904202461CD06D4A9042024602
:103F400018D06C4A9042024614D06B4A9042024606
:103F500010D06A4A904202460CD0694A904202460A
:103F600008D0684A9042024604D0674A904240F026
:103F70008C80654A12680B2363F3440202602A6C4A
:103F80001AB1026842F00802026088423BD0504AEF
:103F900090421CBF4F4A904235D04F4A90421CBFBE
:103FA0004E4A90422FD04E4A90421CBF4D4A9042FA
:103FB00029D04D4A90421CBF4C4A904223D04C4AD3
:103FC00090421CBF4B4A90421DD04B4A90421CBFAE
:103FD0004A4A904217D04A4A90421CBF494A9042EE
:103FE00011D0494A90421CBF484A90420BD0484ADF
:103FF00090421CBF474A904205D0474A90421CBF9E
:10400000464A904257D12A6E1368DB0303D51368E2
:1040100043F480731360EA6E1AB1136843F480733B
:104020001360884223D02A4988421CBF294988420C
:104030001DD0294988421CBF2849884217D02849E9
:1040400088421CBF2749884211D0274988421CBF9B
:10405000264988420BD0264988421CBF2549884200
:1040600005D0254988421CBF244988421AD10168DD
:1040700041F0010101600020B0BD002085F834004E
:104080004FF4006068650120B0BD0268052363F34A
:10409000430202602A6C002A3FF477AF026842F0C4
:1040A000040271E716498842E1D017498842DED000
:1040B00014498842DBE71A4A9042A4D0194A904238
:1040C000A1D0194A90429ED0D1E700BF1000024013
:1040D00028000240400002405800024070000240A8
:1040E00088000240A0000240B800024010040240D4
:1040F0002804024040040240580402407004024078
:1041000088040240A0040240B80402400854025847
:104110001C540258305402584454025858540258FF
:104120006C5402589454025880540258B0B5044656
:1041300000F010FA054905460978621C18BF0C44C6
:1041400000F008FA401BA042FAD3B0BD08000020DE
:104150002DE9F047DFF8F09199F81420012A01D1F8
:1041600002251BE004460120002589F81400C9F847
:10417000185088466068C10709D04CF250300121C0
:10418000FEF71AFB0546002818BF01256068800766
:1041900007D46DB10125002089F814002846BDE838
:1041A000F0874CF250300221FEF706FB2843F1D194
:1041B0002068664E012808D161682069FEF7BCFAC4
:1041C0006068C10736D1002542E04FF0FF30C8F8E3
:1041D000000040F2047AA068074625E0616838468E
:1041E0002269FEF785FA6068C10701D100250AE05F
:1041F0004CF250300121FEF7DFFA3168054621EA22
:104200000A013160606880070BD54CF25030022102
:10421000FEF7D2FAD6F80011054621EA0A01C6F8DF
:10422000001135BB0137A068E16808448742D5D347
:104230000025B0E74CF2503001210127FEF7BCFA0F
:104240003168002821F00801316018BF3D466068E0
:104250008007A0D54CF250300221FEF7ADFA0028BD
:1042600018BF0125D6F8000120F00800C6F80001AB
:1042700091E7C8F800708EE73448016841F0010109
:1042800001600168C90701D101207047D0F8001111
:1042900041F00101C0F800110121D0F8000121EA2C
:1042A000000070472DE9F047274F387D012802D1E3
:1042B0000220BDE8F0870D466FF31301144601207C
:1042C000B1F1006F387504D0B1F1016F39D1022618
:1042D00000E001264FF000084CF25030C7F818807B
:1042E0003146FEF769FA50BB184800F580798246DE
:1042F0004846012E04BF42F20C00C5F200200168BE
:1043000041F0020101600820BFF36F8FBFF34F8FB0
:1043100002CC013802C50106FAD1BFF36F8FBFF39B
:104320004F8F4CF250303146FEF746FA012E08BF4F
:10433000D146D9F8001021F00201C9F8001087F821
:104340001480BDE8F08700BF74A600200C20005246
:104350000E488168C90706D00D4901600D4901600A
:104360008168C9070FD1D0F80811C90709D00849D9
:10437000C0F800110749C0F80011D0F80801C007C3
:1043800001D1002070470120704700BF0420005277
:1043900023016745AB89EFCD2DE9FC4F5E4A0A2723
:1043A0005E4C02444FEAB223A04208BF09274FF0F7
:1043B00000094FF0010B4FF0000C0025092B38BF0E
:1043C0004FEAB22700970A6832FA05F700F09E809C
:1043D0000BFA05F612EA060A00F08B804A68122AE8
:1043E00000F28D800BFA02F717F0061F00F08780AD
:1043F0000323876803FA0CF3CC689F4304FA0CF498
:104400003C4384604FEA45084468C2F3001724EA3D
:104410000606AF4046EA07046FEA030E4460C3682D
:104420008C6803EA0E0304FA08F4234342F01004F4
:10443000C360122C10D16FF0030202EA550202444D
:1044400009F01C03146A0F269E40B4430E6906FA55
:1044500003F3234313624A68036802F0030703EA85
:104460000E0307FA08F73B43D200036041D5284A00
:1044700013462B4C12680F2642F002021A604FF0CE
:10448000B04E1A6802F00202019225F00302019B6D
:1044900009F00C0317599E40B743009E06FA03F338
:1044A0003B4313511B4A1446D26F4B6842EA0A073A
:1044B000DE0358BF22EA0A07E7679E03D4F880208C
:1044C00042EA0A0758BF22EA0A07C4F88070DEF8F9
:1044D0000020DE0242EA0A0758BF22EA0A07CEF8A5
:1044E000007022689B0242EA0A0758BF22EA0A07C4
:1044F000276001350CF1020C09F1040963E703237D
:1045000003FA0CF76FEA070EE04688E7BDE8FC8F78
:10451000F4440258040000580000FEA7002402588A
:10452000080400580069084018BF0120704742691C
:104530000A408A4208BF090481617047002A08BF07
:10454000090481617047000001480068000C704751
:104550000010005C01480068704700BF20A80020E0
:1045600090F84120202A03D190F84020012A01D15F
:10457000022118E0242280F841200268136823F009
:1045800001031360136823F4805313601368194305
:104590001160116841F001011160202180F8411083
:1045A000002180F840100846704790F84120202AEA
:1045B00003D190F84020012A01D1022117E02422E2
:1045C00080F841200268136823F001031360136828
:1045D00023F4706343EA01211160116841F0010185
:1045E0001160202180F84110002180F84010084619
:1045F0007047000008B310B5044690F8410028B990
:10460000002084F84000204600F0FAF9242084F8C5
:10461000410094E80910E268012A016821F00101D3
:10462000016023F070610161816821F400418160C3
:1046300005D14CF40041816009E0012070474CF441
:104640000441022A816002D14FF400614160416857
:104650000F4A04F1100311434160C16821F4004185
:10466000C1600ECB1143E26941EA0321C160216AB6
:1046700011430160016841F0010101600020202127
:10468000606484F84110206384F8420010BD00BFCC
:10469000008000022DE9FE4F00270297044690F8A3
:1046A0004100202808D1206889468169090403D483
:1046B00094F84010012903D1022003B0BDE8F08F27
:1046C0001D466FF39F2990460121242284F8401053
:1046D000002384F841206F1C63644FF0200AE168D6
:1046E00001294FF4205104BF42F20001C0F2002121
:1046F00049444160FFF72EFF0646206881698269C0
:10470000120942EA5111C90708D1002FF5D0FFF76D
:1047100021FF6DB3801BA842EFD929E0D0F818B073
:1047200020210022009620462B4603F07DFE5FEA02
:10473000CB6129D530BB20681021C161C0F81CA015
:10474000029941450ED14168002241F48041416007
:104750002021204600962B4603F066FE90B9206883
:10476000C0F81CA002990131029102994145B6D3CB
:10477000202084F84100606C40F02000606400203C
:1047800084F84000012098E70028FBD12068202110
:10479000C161002084F8411084F840008DE70000DA
:1047A0002DE9F843044690F84100202803D194F8FD
:1047B0004000012804D10227384601B0BDE8F0834B
:1047C00001271D4684F8407016468846FFF7C2FE52
:1047D000814600904FF4004101221923204603F046
:1047E00023FE0028E8D1222084F84100102084F81C
:1047F000420000206064666265856063608DB0F58C
:10480000807F324805D3FF212185FF224FF080733E
:1048100004E0618D4FF00073CAB2218500902046FC
:10482000414603F0E9FD0025089FFF2633E02046BE
:1048300039464A4603F028FEB0BB2068616A406AE8
:104840000870218D606A0130013960622185090498
:10485000608DA0F101006085608D1CD1D8B18021F0
:10486000CDF80090002220463B4603F0DDFDD8B98C
:10487000608DB0F5807F04D3FF2226854FF08073D2
:1048800004E0608D4FF000732085C2B22046009591
:10489000414603F0B1FD608D0028C8D1204639465D
:1048A0004A4603F02BFE08B1012785E72068202146
:1048B000C161524B002742681A40426084F841109F
:1048C00084F8427084F8407076E700BF00240080CE
:1048D0002DE9F843044690F84100202803D194F8CC
:1048E0004000012804D10227384601B0BDE8F0831A
:1048F00001271D4684F8407016468846FFF72AFEB9
:10490000814600904FF4004101221923204603F014
:104910008BFD0028E8D1212084F84100102084F884
:10492000420000206064666265856063608DB0F55A
:10493000807F314805D3FF212185FF224FF080730E
:1049400004E0618D4FF00073CAB2218500902046CB
:10495000414603F051FD0025089FFF2631E0204627
:1049600039464A4603F0EEFDA0BB606A10F8011B11
:10497000226891626062608D01386085208D411EE1
:1049800021850904608D1CD1D8B18021CDF800901B
:10499000002220463B4603F047FDD8B9608DB0F5B4
:1049A000807F04D3FF2226854FF0807304E0608D62
:1049B0004FF000732085C2B220460095414603F0B7
:1049C0001BFD608D0028CAD1204639464A4603F0B7
:1049D00095FD08B1012787E720682021C161074BB9
:1049E000002742681A40426084F8411084F84270FF
:1049F00084F8407078E700BF0020008000E800FEE7
:104A0000704700002A48007802490A68104408608C
:104A1000704700BF20A8002080B5032000F08EF86A
:104A200001F054FE0F490A68C2F3032209680E4BD5
:104A300001F00F019A5C595C02F01F02D0400B4A52
:104A400001F01F0120FA01F111601A4908600020ED
:104A500000F00EF808B1012080BD00F02DF8002014
:104A600080BD00BF18440258543D010814000020C6
:104A700070B50F4E3178C1B104464FF47A70B0FB77
:104A8000F1F00C490968B1FBF0F003F06FFA0F2C5C
:104A90004FF001050AD848B94FF0FF3000222146F7
:104AA000002500F02BF8746000E00125284670BD59
:104AB00008000020100000207047000000280CDBD8
:104AC00000F01F01012202FA01F1044A400942F8F4
:104AD0002010BFF34F8FBFF36F8F704780E100E06E
:104AE000002808DB00F01F01012202FA01F1024A4E
:104AF000400942F82010704700E100E080B5154BF6
:104B00001B68C3F3022C8CF0070EBEF1040F28BF04
:104B10004FF0040EBCF103034FF0FF3C38BF0023FD
:104B20000CFA0EFE21EA0E0199400CFA03F39A43A7
:104B30001143BDE8804007F097BF00BF05490A68F0
:104B40004FF6FF031A4060F30A220348104308603F
:104B5000704700BF0CED00E00000FA05012201687B
:104B6000C0F8FC23002280F8F423054A886940F04D
:104B700000608861486D024300204A65704700BFAD
:104B80000300001070470268002051627047D0F89F
:104B900000C00029DCF824001BD080B5DCF82830E8
:104BA000A1F1010E00EB1343002006E00CEB8101A4
:104BB000D1F80411013003EB1143C1B28E45F5D891
:104BC00043EA02400CEB8E01C1F80401BDE88040CD
:104BD00003E040EA0240CCF8280000207047D0F8FB
:104BE000040406F036B9C1EBC102D0F8043400EB7E
:104BF0008200826C184606F0A7B8C1EBC102D0F85B
:104C0000043400EB8200D0F80822184606F0EEB813
:104C1000D0F8040406F01FB910B5044601F00F00E7
:104C20000A06C0EBC00104EB810205D4002302F5A3
:104C3000FE7182F8FD3104E0012302F13C0182F8AB
:104C40003D3094F8BC230870012A01D1022010BD28
:104C5000012084F8BC03206806F0A6FC002084F83C
:104C6000BC0310BDB0B5044601F00F00626890426D
:104C700001D9012525E0090609D4C0EBC00104EBE8
:104C80008102002302F5FE7182F8FD3108E0C0EBDD
:104C9000C00104EB8102012302F13C0182F83D30A6
:104CA00094F8BC2300258D70012A087001D10225DB
:104CB00007E0012084F8BC03206806F049FE84F870
:104CC000BC532846B0BD01F00F01C1EBC10100EBA0
:104CD0008100D0F814027047B0B5054601F00F000E
:104CE0000C06C0EBC00105EB810C06D44FF0000EA2
:104CF0000CF5FE718CF8FDE105E04FF0010E0CF1B2
:104D00003C018CF83DE04C780870002C8A60CB7038
:104D100018BFC880022B04BF0020087195F8BC039F
:104D2000012801D10220B0BD012085F8BC0328680C
:104D300006F05AFB002085F8BC03B0BD80B501F039
:104D40000F0CCCEBCC0100EB810E0021CEF8082239
:104D5000CEE9843103698EF8FD11012B0EF5FE7149
:104D60008EF8FCC101D1CEF80C22DAB20068BCF199
:104D7000000F02D006F024FE01E006F043FD002003
:104D800080BDB0B50446406801F00F05854201D9E9
:104D90000120B0BD080609D4C1EBC10004EB8000BE
:104DA000002200F5FE7180F8FD2108E0C5EBC5008A
:104DB00004EB8000012200F13C0180F83D2094F8D2
:104DC000BC2301208870012A0D7001D10220B0BDE2
:104DD00084F8BC03206806F0D4FD2DB9217C04F5CD
:104DE0007172206806F088FD002084F8BC03B0BD15
:104DF00010B501F00F0CCCEBCC0100EB810E71462D
:104E000001F83CCF0024C1E9053403690124012BDA
:104E1000CA604C7001D1CEF84C20DAB20068BCF107
:104E2000000F02D006F0CCFD01E006F0EBFC002004
:104E300010BD00002DE9F04F87B004688146204680
:104E400006F0B0FE10B107B0BDE8F08FD9F8000051
:104E500006F0D4FE0028F6D0D9F8000006F0CEFE09
:104E60008007D9F8000003D5416901F002014161D2
:104E700006F0C4FEC0060494D9F800003FD581694D
:104E800021F010018161256AC5F3434005F00F044C
:104E900006281CD002282BD147F6F070054027D0F9
:104EA000C4EBC40009EB80040498D4F808122A0962
:104EB00006F0A8FED4F80802D4F8141200EB15107E
:104EC000C4F8080201EB1510C4F8140210E009F54B
:104ED00071710498082206F095FEC4EBC401C5F375
:104EE0000A1009EB8101D1F814221044C1F8140210
:104EF000D9F80000816941F010018161049C06F03D
:104F00007DFE000340F1C180D9F8000006F055FE97
:104F100009F5717109F5057A069100254FF430689D
:104F20000746002F00F0B180F80700F08C805FFA90
:104F300085FBD9F80000594606F058FE0646C00722
:104F400048D004EB080001218160D9F8000008EB8B
:104F50000001036C8A68D9F81040012C10D11407A5
:104F60001AD4940633D412F0280F049C32D1DE4CAC
:104F7000A3426FD312F400426CD04FF4004027E0FC
:104F8000D94CFF34A34212D11004049C0BD49006D8
:104F900018D52020886015E0D3488342049C19D39B
:104FA00012F4004016D04FF40040886012E0B8F5CB
:104FB000306F049C06D1D9F8101219B90021069A55
:104FC00006F09AFC48465946FFF717FE02E02020FB
:104FD0008860049C300723D504EB0800C24A0821EE
:104FE0008160013AD9F8001008EB0100096C914288
:104FF000816812D9090402D54FF400418160484606
:1050000000F00CFBD9F81000012809D1D9F80000F4
:105010000121069A06F070FC02E0484600F0FEFA14
:10502000F00603D504EB080010218160B00603D51B
:1050300004EB080020218160B00404D504EB0800D3
:105040004FF40051816001357F0808F120080AF112
:105050001C0A66E70969B8F5306F6FF3DF415AE95A
:105060000423A2EB01011A44CAF800104AF80C2CE0
:1050700006D1D9F8101219B90121069A06F03CFCA4
:1050800048465946FFF7B9FDA3E7D9F8000006F0F6
:10509000B5FD400340F1B480D9F8000006F086FD6C
:1050A00004F5106609F57171029600270191024618
:1050B000A3E0D00700F09F80F9B2D9F80000059274
:1050C000069106F081FD0546C00728D007F00F00C5
:1050D000D4F83418012202FA00F021EA0000C4F8E2
:1050E000340806EB47108260D9F81000012812D16D
:1050F000C7EBC70009EB8000D0E911121144002F63
:10510000816408D1D9F8500028B9D9F800000121EC
:10511000019A06F0F1FB48460699FFF764FD28075F
:1051200003D506EB471008218160E806059A03D5F0
:1051300006EB471010218160680603D506EB471087
:1051400040218160A80703D506EB4710022181604A
:10515000280650D5C7EBC70009EB800AD3465BF899
:10516000501FD84658F8040F814244D33B465AF8A2
:10517000442F0F1AD9F80050974288BF174605EB05
:10518000431203934E4602F510690AF1040417E036
:105190000F1ADAF80000327C874288BF0746BBB29C
:1051A000216828460092069A06F0DCFD2068384403
:1051B000D8F800102060C819C8F80000DBF800100B
:1051C000D9F81820FB1C92B2B2EB930F28BF814292
:1051D000DED88142B146DDE90267DDE904420AD842
:1051E00007F00F00012101FA00F0D5F8341821EA88
:1051F0000000C5F8340801375208002A7FF459AF7F
:10520000D9F8000006F0FAFC002802DBD9F800000B
:105210001AE0D4F8040820F00100C4F8040899F852
:10522000F403012807D1002089F8F403002148463F
:10523000FFF7A8FC02E0484600F0D4F9D9F80000D6
:10524000416901F00041416106F0D8FC000502D43B
:10525000D9F800000CE0D4F80808C00702D048468E
:1052600000F002FAD9F80000416901F400614161DF
:1052700006F0C4FC000118D5D9F80000416901F01E
:105280000061416199F8F41319B1484600F0ECF956
:105290000BE0012189F8F4130121406DC0F3830074
:1052A000C9F8F8034846FFF76DFCD9F8000006F08E
:1052B000A5FCC00402D4D9F800005FE0D4F80408CB
:1052C000102120F00100C4F804082546D9F8000098
:1052D00004F5006406F046FC05F51060D9F80410EA
:1052E0004FF67F321BE000BF0B30544F8260013914
:1052F000036823F400130360036843F00063036052
:10530000C0F80822D0F8003223F40013C0F80032AD
:10531000D0F8003243F00063C0F80032203000299A
:10532000E4D1E06940F00110E061D9F8300040B10B
:10533000D4F8840040F00B00C4F8840004F1440069
:1053400006E0606942F22B010843606104F110003D
:10535000016809F5717241F00B010160206820F4C9
:10536000FE60206099F81010D9F8000006F0C4FA29
:10537000D9F80000416901F48051416106F03EFC1A
:105380008004D9F800001AD506F070F8D9F80000AA
:1053900006F0FAFBC9F80C00D9F8005001F056F9F4
:1053A00099F80C200146284606F062FC484600F0B9
:1053B000FFF8D9F80000416901F40051416106F09D
:1053C0001DFC000702D4D9F8000008E0484600F0B0
:1053D0000DF9D9F80000416901F00801416106F0BA
:1053E0000DFCC00202D4D9F8000009E000214846B3
:1053F00000F03AF8D9F80000416901F480114161E8
:1054000006F0FCFB800202D4D9F8000009E000217C
:10541000484600F02DF8D9F80000416901F4001168
:10542000416106F0EBFB400002D4D9F8000008E02F
:105430004846FFF7D4FBD9F80000416901F08041EC
:10544000416106F0DBFB40077FF5FDACD9F80000B9
:105450004468610704D54846FFF7DAFBD9F8000035
:10546000416821434160EEE4D0F8040405F04CBDEE
:10547000D0F8040405F04ABD2DE9F04F8BB00028A8
:1054800000F080800446056890F8BD0328B900202C
:1054900084F8BC03204600F08AF8032084F8BD039A
:1054A000E86BC00501D400202061206806F0A2F955
:1054B000206804F1040E0A9004F11C0A9EE80E58BC
:1054C0009AE8C007D4E90C50CDE9085003A88DE84C
:1054D000005880E8C0070A9805F0D8FF00284ED190
:1054E00020680021002506F09BFB01206168002256
:1054F0000FE0C3EBC30704EB870787F83D0087F88D
:105500003C200132A7F8423087F83F50C7E91155D7
:105510003D65D3B29942ECD8002000220EE0C3EBE7
:10552000C30304EB830383F8FD0183F8FC210132FC
:1055300083F8FF01C3E98100C3F81002D3B2994296
:10554000EDD8A06804F1140E0A9004F1240A226830
:10555000D4E903379EE840589AE80007D4E90C5094
:10556000CDE9085002A8CDE9007680E8005805A8EA
:1055700080E8000710460A9A06F076F830B102205B
:1055800084F8BD0301200BB0BDE8F08F002084F843
:105590003800012084F8BD03606A012802D120464A
:1055A000FFF7DCFA206806F053F80020EBE77047BD
:1055B00010B50446C06838B1022803D00848D3218A
:1055C00006F094FC012100E00021D4F8040405F069
:1055D000E9FCD4F80404BDE8104005F0AEBC00BFFF
:1055E000BB7B0108D0F8040405F0C7BCD0F8040464
:1055F00005F0CABC10B5044690F8BC03012801D1DF
:10560000022010BD012084F8BC0384F83810206803
:1056100006F01DFB002084F8BC0310BDD0F8042464
:1056200000F57171104605F0CABC10B5044690F83B
:10563000BC03012801D1022010BDA26A012120680B
:10564000012A84F8BC1306D1A169012903D0816B1A
:1056500041F48031816305F0EFFF206806F06AFABB
:10566000002084F8BC0310BD10B50446D0F8040433
:1056700005F0E4FC2068D0F8001E41F00101C0F8FC
:10568000001E206A20B10348016841F00601016054
:1056900010BD00BF10ED00E00248016841F08071CC
:1056A000016070470C48025880B500F0CFFF0549F3
:1056B000054A0968C1F30211515C01F01F01C8409D
:1056C00080BD00BF20440258543D010810B53C4C39
:1056D000A36AA26AC2F3051CE26A616B02F00102CE
:1056E000C1F3CC01BCF1000F02FB01F100EE101A76
:1056F000B8EE400A0AD003F00303022B0AD063B9C4
:10570000216889060CD49FED311A13E00021C0E90D
:10571000001153E09FED2C1A0CE09FED2A1A09E0CE
:1057200021682B4AC1F3C10122FA01F101EE101ADE
:10573000B8EE411A02EE10CA9FED263AB8EE422AA0
:10574000216B6FF35F2181EE021A02EE101AB8EEA0
:10575000422A216BC1F3462100EE032AB7EE000A6C
:1057600003EE101A32EE002AB8EE433A21EE021A86
:1057700033EE002A81EE022ABCEEC22A80ED002A16
:10578000216BC1F3064102EE101AB8EE422A32EE46
:10579000002A81EE022ABCEEC22A80ED012A216B8A
:1057A000C1F3066102EE101AB8EE422A32EE000A88
:1057B00081EE000ABCEEC00A10EE101A816010BD26
:1057C000004402580024744A001B374B0024744CD8
:1057D0000090D0030000003910B53C4CA36AA26AC7
:1057E000C2F3053CE26AC2F30012E16BC1F3CC01E3
:1057F000BCF1000F02FB01F100EE101AB8EE400AF6
:105800000AD003F00303022B0AD063B9216889068A
:105810000CD49FED311A13E00021C0E9001153E0D0
:105820009FED2C1A0CE09FED2A1A09E021682B4A03
:10583000C1F3C10122FA01F101EE101AB8EE411ACA
:1058400002EE10CA9FED263AB8EE422AA16B6FF322
:105850005F2181EE021A02EE101AB8EE422AA16B05
:10586000C1F3462100EE032AB7EE000A03EE101A38
:1058700032EE002AB8EE433A21EE021A33EE002A45
:1058800081EE022ABCEEC22A80ED002AA16BC1F390
:10589000064102EE101AB8EE422A32EE002A81EEDC
:1058A000022ABCEEC22A80ED012AA16BC1F3066177
:1058B00002EE101AB8EE422A32EE000A81EE000A19
:1058C000BCEEC00A10EE101A816010BD00440258F0
:1058D0000024744A001B374B0024744C0090D00302
:1058E0000000003910B53C4CA36AA26AC2F3055C03
:1058F000E26AC2F30022616CC1F3CC01BCF1000F7B
:1059000002FB01F100EE101AB8EE400A0AD003F0D3
:105910000303022B0AD063B9216889060CD49FEDDA
:10592000311A13E00021C0E9001153E09FED2C1A59
:105930000CE09FED2A1A09E021682B4AC1F3C1014E
:1059400022FA01F101EE101AB8EE411A02EE10CA65
:105950009FED263AB8EE422A216C6FF35F2181EE6B
:10596000021A02EE101AB8EE422A216CC1F3462147
:1059700000EE032AB7EE000A03EE101A32EE002AF8
:10598000B8EE433A21EE021A33EE002A81EE022AE3
:10599000BCEEC22A80ED002A216CC1F3064102EE62
:1059A000101AB8EE422A32EE002A81EE022ABCEE2C
:1059B000C22A80ED012A216CC1F3066102EE101AA1
:1059C000B8EE422A32EE000A81EE000ABCEEC00AAE
:1059D00010EE101A816010BD004402580024744A71
:1059E000001B374B0024744C0090D003000000399A
:1059F000F8B5B0F5002F00F05680B0F5007F21D04B
:105A0000B0F5806F00F05C80B0F5006F00F064804E
:105A1000B0F5805F23D0B0F5804F2DD0B0F5803F3A
:105A200039D0B0F5807F40F078804949486800F06F
:105A30000702042A00F271804848DFE802F0595E4C
:105A4000707D620042494868C0F38212042A00F265
:105A500064804248DFE802F04C51637055003C49D5
:105A60004868C0F30232042A00F257803B48DFE85E
:105A700002F03F44566348003548C068C0F30271E5
:105A800005294AD83148DFE801F003595D574F46F0
:105A9000FFF70AFE50E02E480068C00328D501A891
:105AA000FFF79AFE47E02A49C86800F44030B0F595
:105AB000003F26D0B0F5803F3AD000282DD11CE021
:105AC0002349C868C0F34252042A26D82348DFE895
:105AD00002F00F14263318001D49C868C0F3026293
