:020000040800F2
:1000000058D600202D0400085B7D00083D7A0008CA
:10001000597D000829200008C5B200080000000032
:100020000000000000000000000000003F04000885
:100030001D2600080000000043040008219100086C
:100040004704000847040008470400084704000864
:100050004704000847040008470400084704000854
:10006000470400084704000847040008BD210008B1
:100070004704000847040008470400084704000834
:100080004704000847040008470400084704000824
:100090004704000847040008470400084704000814
:1000A0004704000847040008470400084704000804
:1000B00047040008470400084704000847040008F4
:1000C00047040008470400084704000847040008E4
:1000D000698D00084704000847040008559D000882
:1000E0004704000847040008000000004704000817
:1000F00047040008470400084704000847040008B4
:1001000047040008470400084704000847040008A3
:100110004704000847040008470400084704000893
:10012000470400081122000847040008470400089B
:100130004704000847040008470400084704000873
:1001400000000000000000000000000000000000AF
:100150004704000847040008470400084704000853
:100160004704000847040008470400084704000843
:10017000470400084704000851210008000000005F
:100180004704000847040008470400084704000823
:100190004704000847040008470400084704000813
:1001A0004704000847040008470400084704000803
:1001B00047040008470400084704000847040008F3
:1001C00047040008470400084704000847040008E3
:1001D00047040008F97E00084704000847040008A7
:1001E00047040008470400084704000847040008C3
:1001F00047040008470400084704000847040008B3
:1002000047040008470400084704000847040008A2
:100210004704000847040008470400084704000892
:1002200047040008470400084704000800000000D5
:1002300047040008470400080000000047040008C5
:100240004704000847040008470400084704000862
:100250004704000847040008470400084704000852
:100260004704000847040008470400084704000842
:100270004704000847040008470400080000000085
:100280004704000847040008470400080000000075
:10029000000000004704000800F002F800F0B6F883
:1002A0000AA090E8000C82448344AAF10107DA45D1
:1002B00001D100F0ABF8AFF2090EBAE80F0013F06D
:1002C000010F18BFFB1A43F00103184738660100FD
:1002D000686601000A444FF0000C10F8013B13F06F
:1002E000070408BF10F8014B1D1108BF10F8015B8F
:1002F000641E05D010F8016B641E01F8016BF9D182
:1003000013F0080F1EBF10F8014BAD1C0C1B09D1D8
:100310006D1E58BF01F801CBFAD505E014F8016B4A
:1003200001F8016B6D1EF9D59142D6D370470000DC
:100330000023002400250026103A28BF78C1FBD8EE
:10034000520728BF30C148BF0B6070476E2900F0CC
:100350005485702900F0B586662912F0A8846529B5
:1003600012F0A584672912F0A284612912F0A184F9
:1003700003681B0A28BF41F08001692900F09681BB
:10038000642900F09381752900F090816F2900F0B5
:100390004386782900F08186E92900F0DD85E4298B
:1003A00000F0DA85F52900F0D785EF2900F04086C6
:1003B000F82900F080860368DB0928BF41F080013E
:1003C000632900F05E85732900F06385E32901F05D
:1003D0008182F32901F08682002070471FB512F058
:1003E00059FC9DE8030000F035FC00F079FE0400A4
:1003F0000020002112F022FC401C6060002000213F
:1004000012F032FCE0601FBD10B510BD01F09AFA89
:100410001146FFF7E3FF0EF01BF801F06BFB03B48E
:10042000FFF7F2FF03BC01F09BFB00000948804787
:1004300009480047FEE7FEE7FEE7FEE7FEE7FEE7C6
:10044000FEE7FEE7FEE7FEE704480549054A064BDE
:1004500070470000419200089902000858A6002049
:1004600058D6002058C6002058C6002070B5064651
:1004700000F0D0FB056806F10B0020F00704B44241
:100480009CBF002070BD2B466A68BAB11068A042BC
:1004900010D304F1080188423CBF5068586007D36C
:1004A0005168101941601168091B0160586014609F
:1004B000101D70BD13465268002AE7D12146284618
:1004C00000F0B4FB0028DED170BD70B50446051FF6
:1004D00000F0A0FB0068002C14BF446870BD002C25
:1004E00018BFAC423CBF20466468F8D301680A18C4
:1004F000AA4218BF456003D12A680546114401602D
:1005000028684119A1421CBF6C6070BD61686960B8
:1005100021680844286070BD53EA020C00F069802D
:100520002DE9F04B4FF00006002B1FBFB3FA83F507
:1005300003FA05F424FA05F65E4012BF1643B2FA38
:1005400082F502FA05F4C5F120051EBF22FA05FC6A
:1005500044EA0C04203556EA044C4FEA144418BF10
:10056000641C4FF000084FF00009904271EB030C3F
:1005700039D3002919BFB1FA81F701FA07F6B0FAA9
:1005800080F700FA07F6C7F120071EBF20FA07FC24
:1005900046EA0C062037B6FBF4FCA7EB0507103F34
:1005A00007F01F0BCBF120062CFA06F60CFA0BFB1A
:1005B00044BFB3460026202FA4BF5E464FF0000B79
:1005C0005BEA060C08BF4FF0010B19EB0B0948EB77
:1005D0000608ABFB027C06FB02CC0BFB03CCC01B6A
:1005E00071EB0C01C1E70B46024641464846BDE8A7
:1005F000F08B13B54FF000004FF00001AFF3008017
:10060000BDE81C40704710B5044600F0FBFA0068D6
:10061000005D000704D5DF2C02D0A4F1200010BD3E
:10062000204610BD7CB51D4616460C00009001D03A
:100630002044401E074B7B442A46694601903046C1
:1006400000F0F5FB05461CB10020694600F002FCF5
:1006500028467CBD2508000070B50C460546012AD9
:1006600005D02878800600D5EA69002302E001233E
:1006700005E05B1C934202D2E05C0028F9D1A86936
:10068000E618C01AA861286A18442862284600F0B3
:1006900022FB04E0D5E9012114F8010B9047B44294
:1006A000F8D3284600F02DFB70BD00002DE9F04185
:1006B0000646002410687529314616A510D000F0B2
:1006C00031FB002802DA404213A507E031688A07AF
:1006D00001D512A502E0490704D511A5012401E0C6
:1006E00000F029FB00210A2206F1240709E0B0FBF3
:1006F000F2FCB0FBF2F302FB1C00303078541846D9
:10070000491C0028F3D123462A463046BDE8F04173
:1007100000F01ABB000000002D0000002B000000BC
:10072000200000002DE9F05F894604464FF0000AE2
:10073000DFF874B1FB44C0F820A02046E168884788
:10074000002874D0252806D0D4E901219047206ADA
:10075000401C2062F1E700265F462046E16888479A
:100760002028054607DB312D05D2781910F8200C1A
:1007700008B10643F1E7B00701D526F00406C4F836
:100780001CA00027C4F818A02A2D09D0284612F072
:100790004DFA38B304EB8708303DC8F8185019E01B
:1007A00059F8041B204604EB87029161E1688847F1
:1007B000012F054618D1E069002820DA26F020062E
:1007C0001DE0D8F8180000EB800005EB4000303841
:1007D000C8F818002046E1688847054612F026FA56
:1007E0000028EED1012F0AD02E2D08D12046E16835
:1007F00088477F1C0546022F46F02006C4DBA0690F
:10080000002803DA404246F00106A061F00701D05B
:1008100026F010066C2D0BD0682D09D04C2D39D048
:100820006A2D35D0742D35D07A2D33D016E038E0CE
:10083000E1682F4620468847B842054609D16C2F0B
:1008400026D04FF48060E16806432046884705467D
:1008500004E06C2F1AD04FF4807006430DB3A5F15D
:100860004100192802D8203546F400664A46294638
:10087000204626604E46FFF769FD80B101280BD067
:10088000F61D26F0070000F1080956E74020E4E7CE
:100890008020D8E70020D6E706F104094DE7284676
:1008A00052E7206ABDE8F09F7E25010010B5431C89
:1008B00002E010F8011B71B18107FAD14FF001324B
:1008C00002C88C1A8C4314EAC211F9D0C01A0A0665
:1008D00003D0C01E10BDC01A10BD0A0401D0801E76
:1008E00010BD0902FCD0401E10BD40EA010370B5E6
:1008F0009B072ED14FF00136042A2AD308C810C90D
:100900009D1B9D43121F15EAC61517D0D8B2E1B240
:10091000401A50EA056110D198B2A1B2401A50EACB
:1009200005410AD123F07F4024F07F41401A50EA6C
:10093000052102D1180EA0EB146070BDA342DBD0DC
:1009400018BA21BA884201D9012070BD4FF0FF309A
:1009500070BD0AB9002070BD10F8013B11F8014BC1
:1009600063B1A3420AD1521E08D010F8013B11F81E
:10097000014B1BB1A34201D1521EEDD1181B70BD1A
:10098000032A40F2308010F0030C00F0158011F8BB
:10099000013BBCF1020F624498BF11F801CB00F893
:1009A000013B38BF11F8013BA2F1040298BF00F8E7
:1009B00001CB38BF00F8013B11F0030300F02580A4
:1009C000083AC0F0088051F8043B083A51F804CBCB
:1009D000A0E80810F5E7121D5CBF51F8043B40F891
:1009E000043BAFF30080D20724BF11F8013B11F89C
:1009F00001CB48BF11F8012B24BF00F8013B00F8E0
:100A000001CB48BF00F8012B704710B5203AC0F069
:100A10000B80B1E81850A0E81850B1E81850A0E8D1
:100A20001850203ABFF4F5AF5FEA027C24BFB1E86A
:100A30001850A0E8185044BF18C918C0BDE81040AD
:100A40005FEA827C24BF51F8043B40F8043B08BFB6
:100A50007047D20728BF31F8023B48BF11F8012B7D
:100A600028BF20F8023B48BF00F8012B7047431A0B
:100A700028BF9A427FF6C9AF1044114410F0030F0B
:100A80001EBF11F8013D521E00F8013D10F0030F8A
:100A90007FF4F6AF103AC0F00A8010B531E9185073
:100AA00020E91850103ABFF4F9AFBDE810405307E1
:100AB00024BF31E9081020E9081044BF51F8043D73
:100AC00040F8043D12F0030F08BF7047D20728BF5B
:100AD00031F8023D48BF11F8012C28BF20F8023D33
:100AE00048BF00F8012C70474FF000020429C0F005
:100AF000128010F0030C00F01B80CCF1040CBCF150
:100B0000020F18BF00F8012BA8BF20F8022BA1EBA1
:100B10000C0100F00DB85FEAC17C24BF00F8012B86
:100B200000F8012B48BF00F8012B70474FF000027E
:100B300000B5134694469646203922BFA0E80C50D3
:100B4000A0E80C50B1F12001BFF4F7AF090728BFAE
:100B5000A0E80C5048BF0CC05DF804EB890028BF2A
:100B600040F8042B08BF704748BF20F8022B11F053
:100B7000804F18BF00F8012B7047000000000000F4
:100B800030B44FF0013C50F8042BCCFA52F451F839
:100B9000043BD51A20D1FCB950F8042BCCFA52F4FE
:100BA00051F8043BD51A17D1B4B950F8042BCCFA3C
:100BB00052F451F8043BD51A0ED16CB950F8042BFD
:100BC000CCFA52F451F8043BD51A05D1002CDAD0F6
:100BD00030BC4FF00000704729BAB1FA81F111F032
:100BE0001801D1F120008440F2D1CA40CB4012F06C
:100BF000FF0213F0FF0330BCD01A704770477047F4
:100C00007047000010B500F06BFA001D10BD00BF6A
:100C10002D20010000487047C8020020004870479E
:100C2000C0020020704770477047704738B50446CF
:100C30000A4600206946AFF30080002808BF38BD8F
:100C400002460099204600F04FFA012038BD0120ED
:100C500000F070BEF8B5AFF30080054600200C46EA
:100C6000102000BF0646A819A0420DD93246694699
:100C70000020AFF30080070008BF00F05BFE009883
:100C8000A04218BF0546C419FFF7C4FF0560074618
:100C9000F01D20F007004619284600F00AF8B4427B
:100CA00008BFF8BDA21B31463868BDE8F84000F027
:100CB0001BBA00210160C0E9011070471020704785
:100CC00010B5FFF7ABFF006810BD10B50446FFF785
:100CD000A5FF046010BD70B5044685690068C106B3
:100CE00001D5302600E02026C00707D070BDD4E92A
:100CF000012130469047206A401C20626D1EF6D5C7
:100D000070BD70B5044685690078C00707D170BD15
:100D1000D4E9012120209047206A401C20626D1EEA
:100D2000F6D570BD09684A0501D540B27047C905BE
:100D3000FCD500B2704709684A0501D5C0B27047BA
:100D4000C905FCD580B270472DE9F0470D4699469C
:100D50009246044600F124080168880604D5E0693B
:100D600021F01001216000E00120A84201DD471BB5
:100D700000E00027A1697A1902EB0900081AA061B6
:100D80002078C00602D42046FFF7A5FF002608E021
:100D9000D4E901211AF806009047206A401C761C0D
:100DA00020624E45F4DB2078C0060AD52046FFF7C6
:100DB00092FF06E0D4E9012130209047206A401CD0
:100DC0002062381EA7F10107F4DC07E0D4E9012115
:100DD00018F805009047206A401C2062281EA5F1E3
:100DE0000105F3DC2046FFF78CFF2078000602D5D2
:100DF0000220BDE8F0870120FBE711680268006A65
:100E0000530501D508700AE0D30501D5088006E036
:100E1000130603D5C217C1E9000200E008600120F3
:100E20007047000001694A1C02610878704700B5EC
:100E30008FB0CDE901310021059105497944CDE913
:100E4000031011466846FFF76DFC0FB000BD0000AF
:100E5000E5FFFFFF0A6802F8010B0A607047D1E95D
:100E600000239A4202D2531C0B601070704710B5D9
:100E7000436913B1AFF3008001E0FFF7EDFB012000
:100E800010BD127800F124010A7000224A7001227C
:100E9000EDE711684FF0FF32E9E700002DE9FF5F51
:100EA00015468A460446DFF8AC80F8440027D8E9A6
:100EB00000103E46CDE9001010E03AF816106A46E0
:100EC00002A800F013FD411C07D02178890603D544
:100ED000E269391891420DD80744761C20788006C3
:100EE00002D5E069B84205DDAE42E6DB3AF816000D
:100EF0000028E2D1A069C01BA0612046FFF7EBFEED
:100F0000D8E90010CDE90010002017E03AF81810D9
:100F10006A4602A800F0EAFCB0F1FF3F81460BD020
:100F200000250DF1080B05E0D4E901211BF80500AF
:100F300090476D1C4D45F7D308F10100B042804643
:100F4000E4DB206A384420622046FFF7DAFEBDE881
:100F5000FF9F00001A1E01002DE9F0418046D21DBE
:100F600022F007020025D2E90002F52915A614D0C7
:100F7000011E72F1000106DA0023D0EB030063EBDF
:100F8000020211A608E0D8F800108B0701D50FA6C1
:100F900002E0490701D50EA601251146002408F1FB
:100FA000240704E000F0BAF830323A55641C50EAE5
:100FB0000102F7D12B46324621464046BDE8F041BA
:100FC000FFF7C2BE000000002D0000002B00000053
:100FD0002000000030B4002100F1240408E002F0F9
:100FE0000705D208303542EA4372DB086554491CD4
:100FF00052EA0305F3D10468002310A2250708D59F
:1010000004F020040C4304D0C46901230CA2641E24
:10101000C46130BCFFF798BE10B504462146106885
:10102000FFF789FE02462046BDE810400023D1E7C5
:10103000D21D22F00701D1E90023CBE70000000018
:1010400030000000F0B40D460188090502D5214C9E
:101050007C4402E01F4C7C440E34002100F1240645
:1010600008E002F00F071209E75D42EA03721B096C
:101070007754491C52EA0307F3D102780023120780
:1010800004D5702D06D009B1022311342246F0BCDC
:10109000FFF75ABE01231034F8E770B504460D4639
:1010A00021461068FFF747FE024629462046BDE864
:1010B00070400023C6E7D21D22F00703D3E90023C6
:1010C000C0E70368126843F0200303600823C3618C
:1010D0000023B7E77C1C010000487047C0020020D5
:1010E00000487047E0020020034640688C46002814
:1010F00018BF88423CBF03464068F8D318681844BC
:10110000884207D00CF1030020F00700001D411AAF
:10111000521A0146081D0A60FFF7D7B930B5B0F181
:101120000A0271F100034FEA900E4EEA817EB0EBA5
:101130000E0061EB91014FEA101E4EEA017E10EBAA
:101140000E0041EB11114FEA102E4EEA016E10EB2A
:101150000E0041EB11214FEA104E4EEA014E10EB0A
:101160000E0041EB1141401841F100014FEAD0005F
:1011700040EA41704FEAD1014FEA810444EA907499
:1011800010EB800544EB01046D1944EB0404521B81
:10119000A3414FF0000348BF0A3200D530BD401CC8
:1011A00041F1000130BD2DE9FF4F0C461E464FF0C6
:1011B000FF378BB0D2E90001DDF860800A908A46E3
:1011C000C1F30A5505B93D46002108464FF000001D
:1011D000BAF1000F00F4400005DA00EB80004FF494
:1011E000400101EA50004FEA9059B9F1010F00DDCA
:1011F000B9460A9850EA4A000ED044F61050A5F2BB
:10120000FF3545432F14B8F1000F1ED07542291E3B
:101210001EDDC9F100021CE0B8F1010F4FF0000023
:1012200001D0302103E0F24305E02154401CB042DC
:10123000FBDB30460022002121540B99C1F80880C5
:10124000C1E900200FB0BDE8F08FBD1B6D1CDEE7CB
:101250004A4600DA694206A800F0DAFB06AB93E8DA
:10126000070003AB83E8070050460A9910F0BCFE64
:101270008DE80700A0F500501F3800900398002D5E
:101280000ADD42F21F014A460844002303A90390E5
:10129000684611F025F909E0A0F500504A461F38CC
:1012A000002303A90390684611F02FF98DE8070089
:1012B0000004000C03D04FF0FF30410800E010465E
:1012C000B8F1000F03D00022009215461EE0751EF3
:1012D00005D4FFF723FF303262556D1EF9D5B346B2
:1012E0000122084302D000227F1C04E0207830282D
:1012F00001D100227F1E002A099784D01DE0112D04
:1013000007DAFFF70BFF303262556D1C50EA01021D
:10131000F5D1084302D00098C8B10EE00021681E44
:1013200005E0235C625C63542254401E491C8142E8
:10133000F7DBAB46A81B401E0990002004F80B0009
:101340000B98099AC0F80880C0E9002B7AE71126AB
:101350004FF0000857E72DE9F04F88460446D21DAC
:1013600022F0070191B0D1E90001CDE90A0111F0A5
:1013700003FA02460B98C00F01D02D2007E0206829
:10138000810701D52B2002E0202101EAC000032AB9
:10139000099001D0072A05DB03464146204600F0AC
:1013A000F7FA0BE12078800601D5E06900E006201D
:1013B000B8F1650F814606D0B8F1660F18D0B8F1C4
:1013C000670F70D131E00020B9F1110F009001DBFF
:1013D000112301E009F101030AAA01A90CA8FFF7F2
:1013E000E2FEDDE90C70002609F10105834647E0C5
:1013F00001204B4600904FF000470AAA01A90CA813
:10140000FFF7D1FEDDE90DB00C995D46002610B95D
:1014100009F101000D18B9EB050003D4C0F1FF3646
:1014200009F10105A5EB09002BE0B9F1010F01DA83
:101430004FF001090020B9F1110F0090484601DD7D
:10144000112300E003460AAA01A90CA8FFF7ABFE8E
:10145000DDE90C704D4600268346207800070AD44B
:10146000AB4500DA5D4601A8012D04DD411911F8F4
:10147000011C302907D04F4502DA17F1040F04DAB6
:10148000012082460FE06D1EEEE7002F02DCED1B0F
:101490003E4403E0781CA84200DD7D1CB81B00F12F
:1014A000010A4FF000472078000703D4AA4501DB6A
:1014B0004FF0FF3A0021B7F1004F0DF143088DF8CE
:1014C000431024D002202B23002F01DA7F422D234A
:1014D0000A21021EA0F1010000DC5FB197FBF1FCC4
:1014E00097FBF1F201FB1C7C17460CF1300C08F85D
:1014F00001CDEEE7A8F1010003702188090501D5AF
:10150000452100E06521A0F1010800F8011C0998BF
:101510000FA9A1EB0807FF1D00B10120411901EB44
:10152000EA70A1693844081A401EA0612078C006FC
:1015300002D42046FFF7CFFB099828B1D4E9012156
:101540009047206A401C20622078C00622D52046A1
:10155000FFF7C1FB1EE0002E04DBB34502DD01A84E
:10156000805D00E03020D4E901219047206A401CD2
:101570002062761CAAF101005FEA000A0AD1FFF797
:10158000AFFDC0680168405CD4E901219047206A42
:10159000401C2062281EA5F10105DCDC07E0D4E92F
:1015A000012118F8010B9047206A401C2062381E68
:1015B000A7F10107F3DC2046FFF7A3FB032011B0DE
:1015C00041E600002DE9F04F04460D46D21D22F001
:1015D000070089B0D0E900974846394611F0CCF8A9
:1015E0000246F80F01D02D2307E02068810701D5BE
:1015F0002B2302E0202101EAC0038DF820300BB13B
:10160000012000E00020032A824601D0072A04DBE3
:101610002946204600F0BCF93FE12078800601D43D
:101620000D2500E0E569C7F30A560D2D49DA0021C2
:101630004FEA175B08464FF00000002F00F440000F
:1016400007DA00EB80004FF4400100EBD07001EAB4
:1016500060008115012901DD4FF0FF3100224FEAC2
:10166000850CBCF1180F06D31346ACF118004FF0EF
:101670008052C24003E04FF4801323FA0CF30CF1C4
:101680000C0CBCF1200F04D3ACF1200C09FA0CF0C7
:1016900001E007FA0CF000294FF0004801DD18B90D
:1016A0000FE00ED140450CD319EB02095F4121B97F
:1016B000404502D19F4329EA0209BBEB175F00D0E6
:1016C000761C2088000502D57B48784402E07A48E1
:1016D0007844193808AA302302F80A30037C0AF14A
:1016E0000101002E0AF1020A53546A4602DC4FF04F
:1016F000300101E04FF031014FF001088DF800108A
:1017000002D0A6F2FF3603E059EA470100D06B4E43
:10171000002D02DC2178090704D54FF002082E21A4
:101720008DF80110C44600210BE0C7F303433F01CD
:10173000C35C491C6D1E02F80830052908F1010838
:1017400001DA002DF1DC00210CE000EB1973491CDB
:101750001B786D1E082902F808304FEA091908F1B4
:10176000010801DA002DF0DC21688B0602D516E0B5
:10177000A8F10108E04505DD02EB080313F8013C80
:10178000302BF5D0B8F1000F09DD02EB080313F898
:10179000013C2E2B03D1090701D4A8F10108002D2B
:1017A00005DD3E2102F808106D1E08F10108407C9D
:1017B000002E02F8080008F1010804DA2D20764214
:1017C00002F8080002E02B2002F808000A214FF47A
:1017D0007A70864208F101080BDB96FBF0F3303398
:1017E00002F8083096FBF0F308F1010800FB1366DD
:1017F00001E0642E0CDB642096FBF0F3303302F83A
:10180000083096FBF0F308F1010800FB136601E0D5
:101810000A2E06DB96FBF1F0303002F8080008F1E2
:10182000010896FBF1F001FB1060303002F808006F
:10183000A16908F1010808EB050202EB0A00081A89
:10184000A0612078C00602D42046FFF744FA216A3E
:1018500008AE01EB0A00206204E0D4E9012116F889
:10186000010B9047BAF1010AF7D22078C00602D5E1
:101870002046FFF730FA6E4609E016F8010B3E28C5
:101880000FD0D4E901219047206A401C2062B8F1B2
:101890000108F2D22046FFF734FA09B00320BDE870
:1018A000F08F206A2844206203E0D4E9012130202F
:1018B00090476D1EEBD3F8E75D16010002FCFFFFB9
:1018C00010B5436913B1AFF3008001E0FFF7E6FA0A
:1018D000012010BD128800F1240182840022C284FC
:1018E0000122EDE711684FF0FF32E9E72DE9F04101
:1018F00016460C460546FFF785F9036893F8010183
:10190000012807D0FF2C12D8185D80B101202C705F
:10191000BDE8F081D3F807013246214603F20713F0
:10192000C7182846BC46BDE8F041002360474FF089
:10193000FF30EDE710B500F0EBF8BDE8104000F027
:10194000E2B870477546FFF7C7FBAE46050069462B
:10195000534620F00700854618B020B5FEF774FD09
:10196000BDE820404FF000064FF000074FF00008A0
:101970004FF0000BAC46ACE8C009ACE8C009ACE8DD
:10198000C009ACE8C00921F007018D46704700008E
:101990002DE9F0411F46044603260168072A01F499
:1019A000006004DB08B116A505E016A503E008B148
:1019B00015A500E015A521F010002060A069C01E4B
:1019C000A0610FB1401EA0612046FFF784F94FB11E
:1019D000D4E9012138469047206A401C2062C01C8F
:1019E000206206E0206AFAE7D4E9012115F8010B2C
:1019F0009047761EF8D22046FFF783F9BDE8F081C4
:101A00004E414E006E616E00494E4600696E6600A2
:101A10002DE9F047814616468AB0354878440DC80E
:101A20008DE80D0032487844801C03AC0DC884E872
:101A30000D0041F69B300844372190FBF1F290FBFA
:101A4000F1F5A5F1800501FB12041B3C02D56442AF
:101A5000012000E00020DFF898A080460027FA442B
:101A6000AAF1BE0A0EE0E0070AD03246684607EB4C
:101A7000470101230AEB810110F047FD8DE80700C3
:101A800064107F1C002CEED1194F7F44AE3F19E04B
:101A9000E80715D007EB04100DF1180A90E80E00C6
:101AA0008AE80E00C068F04201D1981908903246C9
:101AB000012306A903A810F028FD03AB83E8070063
:101AC0006D10641C002DE3D14FF0010332466946CE
:101AD000B8F1000F03A802D010F002FD01E010F0F1
:101AE00014FDC9E90001C9F808200AB0BDE8F08773
:101AF0009C13010010B50446AFF300802046BDE8FA
:101B00001040FEF78CBC002801D000F029B87047C7
:101B100010B5012805D0002103A000F027F801200E
:101B200010BD09A1F8E7000053494752544D454DF7
:101B30003A204F7574206F662068656170206D656E
:101B40006D6F7279000000003A2048656170206D69
:101B5000656D6F727920636F727275707465640061
:101B600001491820ABBEFEE72600020070B505460D
:101B70000C460A2000E06D1C00F011F835B1287801
:101B80000028F8D102E0641C00F009F814B12078B4
:101B90000028F8D1BDE870400A20AFF3008008B5F6
:101BA00069468DF800000320ABBE08BD2DE9FE4F4D
:101BB000012840F0A981DFF854638021DFF8500349
:101BC000DFF85023B0600CF0E3FC0021DFF848A3FD
:101BD0000FF2483780464FF0000B4FF00009002508
:101BE000B8F1000F00F082818021029550460BF180
:101BF0000304FEF79BFF58FA84F50521284607F0F9
:101C000081FA052228463946FEF76FFE38B10622D2
:101C10002846C4A1FEF769FE58B1032516E0C54861
:101C20000BF10804CAF80300C348CAF800000025F5
:101C300008E00BF10904DFF8E0A20125BB48BC492C
:101C4000CAE900105046FEF731FEB08058FA84F021
:101C50000FF039FE032D064604F1030B01D10125D7
:101C60004EE00196F6B2632E12D0A848C08A864292
:101C70000ED00225A54EDFF8A0A280215046FEF727
:101C800055FF022D37D1B08A012834D1022546E014
:101C900058FA8BF00FF017FE9C4F5FFA80F9B88866
:101CA000A6A1FA8A4B46DFF870A204F1060B504455
:101CB00010F070F85046FEF7F9FDB8800027A24BEF
:101CC00000E00137072F18D813F837104945F8D12D
:101CD00003EBC7014A68002A45D0052F4CD34B7847
:101CE0009D4249D00525DFF830A28CA780215046BF
:101CF000FEF71CFF0BE0019E08E00425019E87A76C
:101D0000DFF814A280215046FEF710FFF6B25046CD
:101D1000009594A132464B4610F03CF87B4E50465D
:101D2000FEF7C4FD0104B08006D082B2934842F2AF
:101D30001073514605F01DFE70780130C1B270700D
:101D4000182900F2DA805FFA8BF0B268C8F18001DE
:101D5000081A10446F4A81B258FA8BF00CF018FC44
:101D6000804601213CE7DFF8B0A17CA11AFA80F09F
:101D700010F010F869A7B3E0012D13D0002D67A76C
:101D800030D18978DFF890A10A29029D00F2A9805C
:101D9000DFE801F0062B33383DA7A7A72FA74400A3
:101DA000127823E05FFA8BF0DFF86CA104F1070BE7
:101DB00018F8000059A72C2843D18878092800F288
:101DC0007580DFE800F005404C58677373737376D5
:101DD00058FA8BF05FFA8BF415460FF074FD2870FB
:101DE000C2B239E0DFF830A17AE012881AFA80F046
:101DF0000BE01AFA80F057A10DE0B2F900201AFAB0
:101E000080F007E01AFA80F01268514903E01AFAEC
:101E100080F012684D490FF0BDFF62E05FFA8BF071
:101E200004F1070B18F800002C280AD137495FFA93
:101E30008BF04988081A81B258FA8BF09047054612
:101E40004FE0062552E758FA8BF05FFA8BF41546FF
:101E50000FF039FD288082B22C49898816E058FAA3
:101E60008BF05FFA8BF415460FF02DFD288002B23F
:101E7000264989882AE058FA8BF05FFA8BF41546D8
:101E80000FF021FD21490246898828600AEB0100F4
:101E90002F491EE058FA8BF05FFA8BF415460FF0CD
:101EA00012FD1A490246898828600FE05FFA8BF418
:101EB00011E0164D5FFA8BF46888001B81B258FA66
:101EC0008BF09047A9880246DFF84CA00AEB01008E
:101ED0001E490FF05FFF08EB0400FEF7E7FC8344A8
:101EE000029D0DB1094EC8E6002517E770887F28CE
:101EF00003D8012918BFBDE8FE8FB0688021FEF726
:101F0000F3FD002070803070BDE8FE8F8803002054
:101F1000600400204D620108E00300205245414466
:101F20003D00000057524954453D000054453A00D9
:101F30002B57524941443A002B52454125303264D7
:101F40002C253033643D0000B82E0108436201089F
:101F50004862010825730D0A000000004E554C4CE4
:101F60000D0A00002B4552524F523A253032642C54
:101F7000253033643D25640D0A00000018A40020BC
:101F8000284902460846114604F048BC80B5254859
:101F900004F055FC043818BF012080BD80B500F066
:101FA00013F8012804D11F4804F018FD10B180BDBA
:101FB000022080BD1B484FF4804104F0E9FA00285C
:101FC00018BF012080BD00BFE0B5012001218DF8C0
:101FD0000700054802F032F810B100208DF8070024
:101FE0009DF8070002B080BD000C0258E0B5944691
:101FF00000930A4601460B48634604F05DFE002844
:1020000018BF012002B080BDE0B5944600930A4697
:1020100001460448634604F01DFF002818BF012054
:1020200002B080BD14A30020FEE70020704700200E
:102030007047000010B51D4C00220549204607F0EE
:1020400072FF0449204607F068FF002010BD00BF62
:10205000E40E0020E406002070B50546134E0C4641
:102060003046294607F059FF304607F039FF2288ED
:10207000294602480EF0F4F9002070BDA8020020A5
:102080000A4AD2F81822D2F81422002A1CBF0120D2
:10209000704710B5054C0A460146204607F043FF3D
:1020A0002046BDE8104007F07FBF00BF5C9B0020CA
:1020B000806B816C496D022906D0012180F83510B2
:1020C000C16C41F04001C16400F07EBC10B5846B6E
:1020D000A26BA06C002A01680B6803F400220BD0ED
:1020E000002AA26B14D012F0010211D1C968E26B70
:1020F00001EBC201002213E0C2B90868000317D443
:10210000E06BD4E9103202EB80000861A3630FE0BA
:102110000A6812030CD40969E26B01EBC2010122C7
:1021200000F054FDA06B0138A06301E0606CC86052
:10213000A06B216C88420AD12068C16841F001017E
:10214000C1600068800744BF012084F8350010BDDD
:10215000184800F03BBC00BF70B5002B18BF01232E
:10216000002A18BF0122002918BF0121114C0025A7
:102170005B01114E26606560C901A36004F10C0388
:10218000920126C3A561C4E908053848C4E90A5587
:102190002563A0648463204600F00AFC204600F01A
:1021A0005FFC30B132484FF4F671BDE8704009F081
:1021B0001DB970BD809D002000000248124801F04A
:1021C00047B800BF10B5104CBA4828212060402005
:1021D00061600021A0604FF48060C4E903104FF4F7
:1021E0000030C4E90511E161C4E90801204601F0AD
:1021F000E7FA20B11E484FF4C47109F0F7F803481C
:102200008467A06310BD00BFD09D002090A3002074
:10221000164801F01DB800BF80B51448A6494B22EE
:1022200001600021C0E901214FF48062C1604FF4D8
:10223000805302614FF48042C0E905324FF400320E
:10224000C16104230262032243624FF40003C0E928
:102250000A23016301F0B4FA30B105484FF4E57187
:10226000BDE8804009F0C2B880BD00BF489E002094
:10227000946601080168D14A914223D0D04A914224
:102280001CBFD04A91421DD0CF4A91421CBFCF4AB9
:10229000914217D0CE4A91421CBFCE4A914211D0F2
:1022A000CD4A91421CBFCD4A91420BD0CC4A9142BB
:1022B0001CBFCC4A914205D0CB4A91421CBFCB4AAD
:1022C00091421AD180B56FF00F02DFF848C052FA80
:1022D00081F21823B2FBF3F340F2FF3E21EA0E0134
:1022E0005F2A03F007031CF80330C36588BF04317D
:1022F000BDE88040816508467047BD4A9142E1D003
:10230000C54A9142DED0BB4A9142DBD021F0FF01A9
:10231000F0E700BF8C2F01080268B8498A421F49C4
:102320001CBFB74B9A4205D0B64B9A421CBFB64B66
:102330009A4213D1D3B2A3F108021423B2FBF3F3F0
:1023400001F1800201EB830103F01F0301664FF0EE
:10235000010C0CFA03F1C0E919217047AB4B9A420A
:10236000E8D0AC4B9A42E5D0A94B9A42E2D0A1F515
:102370005B7CD3B26245DED0A3F110011823B1FB20
:10238000F3F1084B03F1AA0C9A420B4688BF0833BD
:10239000624528BF0B460249D2E700BF00580258E9
:1023A000000802400F04024001790139072988BF63
:1023B00070470268914B9A421CBF914B9A4205D0DC
:1023C000904B9A421CBF904B9A420BD18A000E4B05
:1023D0004FF0010C1A444033C2660CFA01F1C0E917
:1023E0001C317047894B9A42F0D08A4B9A42EDD00B
:1023F000874B9A42EAD0804B9A424FEA8102E6D05C
:10240000004BE5E7000902400059025810B5D0F82A
:1024100000C06A4CA44564463BD0694CA445644660
:1024200037D0684CA445644633D0674CA445644615
:102430002FD0664CA44564462BD0654CA445644619
:1024400027D0644CA445644623D0634CA44564461D
:102450001FD0624CA44564461BD0614CA445644621
:1024600017D0604CA445644613D05F4CA445644625
:102470000FD05E4CA44564460BD05D4CA445644629
:1024800007D05C4CA445644603D0634CA4450DD1F1
:10249000614C63608068402802D1CCF8082002E0DB
:1024A000CCF808101146CCF80C1010BDCCF8043054
:1024B000F0E700BF1000024028040240B0B5C46E2F
:1024C000D0F858E0002CD0E919C5CCF8045002D05F
:1024D000D0E91C546C60D0F800C0384CA44529D019
:1024E000374CA4451CBF374CA44523D0364CA445DB
:1024F0001CBF364CA4451DD0354CA4451CBF354CE3
:10250000A44517D0344CA4451CBF344CA44511D06D
:10251000334CA4451CBF334CA4450BD0324CA445CE
:102520001CBF324CA44505D0314CA4451CBF314CD6
:10253000A4451CD1C46D3F2504F01F04806805FA32
:1025400004F4CEF80840DCF8005025F48025CCF8DF
:1025500000504028CCF8043004D1CCF80820CCF846
:102560000C10B0BDCCF80810CCF80C20B0BD224C3B
:10257000A4451CBF214CA4450BD0214CA4451CBF35
:10258000204CA44505D0204CA4451CBF1F4CA4459D
:1025900009D1C46D012504F01F04806805FA04F414
:1025A000CEF80440D5E71A4CA445F2D0194CA44506
:1025B000EFD0194CA445BDD0D8E700BF10000240B1
:1025C00028000240400002405800024070000240D3
:1025D00088000240A0000240B800024010040240FF
:1025E00028040240400402405804024070040240A3
:1025F00088040240A004024094540258085402582F
:102600001C5402583054025844540258585402582A
:102610006C54025880540258B8040240704700229B
:10262000AFF3008080B5DFF848E09EF80930002B5A
:1026300001D0012080BD9EF80930844600200EF8AC
:1026400003009EF809300EEB8303C3F804C09EF824
:10265000093073441A729EF80920531C30328EF8E8
:1026600009300A7042F63A72A1F80120C87080BDA4
:10267000E496002010B5CB07364C10D0236823F425
:10268000E663236042EA0023D4F800C043EA0C0367
:1026900043F004032360236843F080032360890729
:1026A00014D5D4F8001142EA002021F4E661C4F800
:1026B0000011D4F80011084340F00400C4F80001F0
:1026C000D4F8000140F08000C4F8000110BD00BF44
:1026D00001F00302032A1F4A16D1116821F03001CC
:1026E0001160D2F8001121F03001C2F80011116818
:1026F00001431160D2F800110843C2F80001D0680C
:1027000040F01000D0607047CB070CD0136823F066
:10271000300313601368034343F008031360136826
:1027200043F080031360890758BF7047D2F8001147
:1027300021F03001C2F80011D2F80011084340F036
:102740000800C2F80001D2F8000140F08000C2F891
:10275000000170470C2000522DE9F8430C462F4E23
:10276000054601F07BFC32462D4F80466E1C91469B
:10277000012C08BF0427012C06D110683840C01B6B
:10278000B0FA80F0400903E0D2F80001C0F3800005
:1027900070B1002EEFD001F061FC002D01464FF02A
:1027A000030037D0A1EB0801A9424A46E3D931E042
:1027B000012C03D110681B49084005E0D2F8000144
:1027C0001849084000F1004020F0004161B1164A6C
:1027D000164C00EA04079369874243EA00039361B9
:1027E0000BD1C9F804000AE0012C0AD11068C0031B
:1027F0000FD54FF4803050600BE0C9F80411012070
:1028000008E0D2F80001C00303D54FF48030C2F8CD
:102810000401002001B0BDE8F08300BF1020005289
:10282000040000800000EE17A8A400200F00EF1F96
:102830002DE9F04F85B000265C4F07240496012057
:1028400000940190584800F500696D46824648465C
:1028500029464FF00108CDE90266B8470721012259
:10286000484601F0F0FB4FF4406000900220CDE9B3
:1028700001060320CDE903040AF5806420462946B9
:10288000B8474FF44050CDE900080AF5406840468B
:102890002946CDE90266B8474FF4805000902046A3
:1028A0002946B8474FF420400090022001900320B1
:1028B0000296294603900520049020464FF0020B13
:1028C000B8474FF4F850CDE9000B0320029603906F
:1028D0000C200490484629464FF0020BB8470420CC
:1028E000009040462946B8470120CDE90006404601
:1028F0002946B8477320CDE9000B0D20CDE90266CB
:1029000004900AF580502946B84750200090504660
:102910002946B8474FF0C00B4846CDF800B02946CD
:10292000B8472046CDF800B02946B8474FF440706C
:102930000090122001904FF001090320CDF808907B
:1029400003900420049020462946B8474FF4807035
:102950000090022450462946CDE90146CDE90366A0
:10296000B8474FF48060CDE9000950462946CDE9CB
:102970000266B8478020009040462946B8474FF489
:102980000070CDE90006504602962946B8474FF43C
:10299000C0508DE851000A20039604905046294605
:1029A000B84705B0BDE8F08F00000258BD3E0008F2
:1029B00010B5044600F09DF800210020E16484F881
:1029C000351084F8341010BD70477047B0B5044618
:1029D0000068056969070CD504214161E06C40F08D
:1029E0000200E06484F83510A06C7649016500F0BF
:1029F0006BFBA8070ED521680222A06C4A61E16C2E
:102A000041F00101E164042184F835106D4901654C
:102A100000F05AFBE80605D52068102141612046E8
:102A200000F066F8280705D5206808214161204696
:102A300000F0CAF8E80700D1B0BD20680168890736
:102A400003D5C16821F01E01C160C16821F00101F8
:102A5000C160012141612046BDE8B040FFF7B5BF2C
:102A6000002840D0B0B5044690F8350010B9204693
:102A700000F040F802201D4D84F8350094E8031062
:102A8000E3681029026802EA05020260626942EA0C
:102A9000010242EA0302236942EA0302A36942EA0D
:102AA0000C0242EA0302D4E9083542EA0302A36AAF
:102AB00042EA0502E56A42EA0302236B42EA0502A2
:102AC00042EA0302036842EA0302026001D1E169BB
:102AD0008161C16841F01E01C16000200121E064F4
:102AE00084F83510B0BD0120704700BF07F0E0FF4B
:102AF00070477047704700007CB5044690F834007A
:102B000001284FF0020058D04FF0010E84F834E055
:102B1000002684F83500B6EB134FD4F800C0A06C43
:102B2000DCF8005045F48045CCF80050DCF800504B
:102B300025F00205CCF80050DCF8005041EA050110
:102B4000204DCCF800101E49C163C0E91356A6639E
:102B5000266404D10CF1280100F092FF1DE04164CD
:102B6000C4F838E0E363626405E0E16B4908E163BF
:102B7000A16B4900A163E16BB1F5803FF5D2A16B78
:102B80000239A163A16B2164E16B02EB8103E66B67
:102B90000CF12801009600F05BF828B14020E064B9
:102BA000012084F8350005E02068016841F001014A
:102BB00001600020002184F8341002B070BD00BF15
:102BC000CD200008B1200008704700000368B64817
:102BD00083421CBFB54883421DD0B54883421CBF09
:102BE000B448834217D0B44883421CBFB3488342E1
:102BF00011D0B34883421CBFB24883420BD0B248C5
:102C000083421CBFB148834205D0B14883421CBFF8
:102C1000B048834209D112B14FF0100C01E04FF0DF
:102C20000C0C002043F80C107047AB488342F2D0E4
:102C3000AB488342EFD0A9488342ECD0A9488342F5
:102C4000E9D04FF0100C002A08BF4FF00C0CE8E759
:102C50002DE9F84304468068802802D14FF4807043
:102C6000EAE094F83400012801D10220E6E00120D6
:102C700084F8340094F83500012840F0DB8002200D
:102C8000894FDDF820C084F83500002060654FF0E2
:102C90003F0E20684FF00808B8424FF4802924D036
:102CA000FA4DA8421CBFFA4DA8421ED0F94DA842C9
:102CB0001CBFF94DA84218D0F84DA8421CBFF84DD2
:102CC000A84212D0F74DA8421CBFF74DA8420CD025
:102CD000F64DA8421CBFF64DA84206D0F54DA842BD
:102CE0001CBFF54DA84240F0BA8005462E6846EA62
:102CF00009062E600361E06D00F01F00A36D0EFA5F
:102D000000F043F8080020466346FFF77FFBE16EC2
:102D1000D4E919020029426002D0D4E91C024260C1
:102D20002068B84202463BD0D84A9042024637D08B
:102D3000D74A9042024633D0D64A904202462FD01C
:102D4000D54A904202462BD0D44A9042024627D020
:102D5000D34A9042024623D0D24A904202461FD024
:102D6000D14A904202461BD0D04A9042024617D028
:102D7000CF4A9042024613D0CE4A904202460FD02C
:102D8000CD4A904202460BD0CC4A9042024607D030
:102D9000CB4A9042024603D0CA4A904251D1C94A16
:102DA00012680B2363F344020260426942F080021E
:102DB0004261226C0AB9A26C1AB1026842F00802A0
:102DC0000260226E1368DB0303D5136843F480733B
:102DD000136019B10A6842F480720A60B84223D0C5
:102DE000AA4988421CBFAA4988421DD0A9498842E5
:102DF0001CBFA949884217D0A84988421CBFA849CE
:102E0000884211D0A74988421CBFA74988420BD0ED
:102E1000A64988421CBFA649884205D0A5498842D8
:102E20001CBFA54988422ED1016841F00101016013
:102E3000002003E04FF400606065012001B0BDE8B0
:102E4000F0830268052363F343020260226C12B927
:102E5000A26C002AB5D0026842F00402B0E7F84D37
:102E6000A8423FF442AFF84DA84205463FF43EAFBA
:102E7000F44DA84210D14FF03F0EF24D4FF008082C
:102E80004FF4802932E7EE498842CDD0ED4988429F
:102E9000CAD0ED498842C7E74FF0010E4FF0040851
:102EA00048F2200921E700BF10000240280002403C
:102EB000400002405800024070000240880002407A
:102EC000A0000240B8000240100402402804024062
:102ED000400402405804024070040240880402404A
:102EE000A0040240B8040240F8B5044601F0B6F868
:102EF000002C6FD0054694F83500022865D127686C
:102F0000C24EB74238463BD0C1488742384637D0D8
:102F1000C0488742384633D0BF48874238462FD012
:102F2000BE48874238462BD0BD488742384627D016
:102F3000BC488742384623D0BB48874238461FD01A
:102F4000BA48874238461BD0B9488742384617D01E
:102F5000B8488742384613D0B748874238460FD022
:102F6000B648874238460BD0B5488742384607D026
:102F7000B5488742384603D0B24887426DD1B14840
:102F8000016821F01E0207F1140102606FF0800059
:102F90000A6810400860206E016821F480710160A9
:102FA000386820F0010038603868C00715D001F09B
:102FB00055F8401B0628F7D320206065002084F8D0
:102FC0003400032084F8350004E080206065002090
:102FD00084F83400012001B0F0BD2068B0421CBF6D
:102FE0008B4988421DD08B4988421CBF8A49884240
:102FF00017D08A4988421CBF8949884211D0894923
:1030000088421CBF884988420BD0884988421CBF2F
:103010008749884205D0874988421CBF8649884233
:103020001FD1A06DE16D3F2201F01F0102FA01F1F5
:103030008160E06ED4E9191200284A6006D0016868
:1030400021F480710160D4E91C014160002001215C
:1030500084F8340084F83510BDE76FF00E0039466F
:1030600096E776498842DCD077498842D9D07449BE
:103070008842D6D073498842A06DD3D0E16D012239
:1030800001F01F0102FA01F14160D2E7280002407D
:103090004000024058000240700002408800024098
:1030A000A0000240B8000240100402402804024080
:1030B0004004024058040240700402408804024068
:1030C000A0040240B804024010B5002841D090F896
:1030D000351002293BD101684C4A914223D04C4B18
:1030E00099421CBF4B4B99421DD04B4B99421CBF80
:1030F0004A4B994217D04A4B99421CBF494B9942BF
:1031000011D0494B99421CBF484B99420BD0484BB8
:1031100099421CBF474B994205D0474B99421CBF6F
:10312000464B99423CD10423914280F835301CBF74
:103130003748814205D0374881421CBF364881421A
:103140000AD1086820F001000860002102E0802117
:1031500041650121084610BD30488142F1D0304818
:103160008142EED02F488142EBD02F4881421CBFD4
:103170002E488142E5D02E4881421CBF2D48814215
:10318000DFD02D4881421CBF2C488142D9D02C4829
:103190008142D6D02B488142D3D02B488142D0E700
:1031A000274B9942BFD0274B9942BCD0264B99421E
:1031B000B9D00A6822F00E020A600A6822F0010201
:1031C0000A60D0E916C2D0E9183E196802F01F045F
:1031D00021F480710122196002FA04F1CCF8041084
:1031E000816ECEF80410C16E31B10B6823F4807388
:1031F0000B60D0E91C134B60002180F8341080F87C
:103200003520026D002AA5D090479EE710000240AD
:103210002800024040000240580002407000024076
:1032200088000240A0000240B800024010040240A2
:103230002804024040040240580402407004024046
:1032400088040240B8040240A0040240406D704768
:103250002DE9FC410021C54F01910446DFF8081516
:103260000068A56DB842D1F800802E6829682AD080
:10327000BF4A90421CBFBF4A904224D0BE4A9042EF
:103280001CBFBE4A90421ED0BD4A90421CBFBD4AE0
:10329000904218D0BC4A90421CBFBC4A904212D007
:1032A000BB4A90421CBFBB4A90420CD0BA4A9042E3
:1032B0001CBFBA4A904206D0B94A90421CBFB94AD4
:1032C000904240F09F81E16D082201F01F018A4089
:1032D000324236D0BC46B8424FF0040324D0A44F4B
:1032E000B8421CBFA34FB8421ED0A34FB8421CBF68
:1032F000A24FB84218D0A24FB8421CBFA14FB8424B
:1033000012D0A14FB8421CBFA04FB8420CD0A04F62
:10331000B8421CBF9F4FB84206D09F4FB8421CBF57
:103320009E4FB84240F0968107681F42674608D01A
:10333000036823F004030360AA60626D42F0010297
:10334000626501228A4032422ED0B84224D0884B96
:1033500098421CBF874B98421ED0874B98421CBF97
:10336000864B984218D0864B98421CBF854B98429A
:1033700012D0854B98421CBF844B98420CD0844B92
:1033800098421CBF834B984206D0834B98421CBF87
:10339000824B984240F06B8143691B0604D5AA60BA
:1033A000626D42F00202626504228A4032422ED0EF
:1033B000B84224D06E4B98421CBF6E4B98421ED030
:1033C0006D4B98421CBF6D4B984218D06C4B984285
:1033D0001CBF6C4B984212D06B4B98421CBF6B4B7E
:1033E00098420CD06A4B98421CBF6A4B984206D058
:1033F000694B98421CBF694B984240F04681036874
:103400009B0704D5AA60626D42F004026265102237
:1034100002FA01F131423FD0B8424FF0080224D005
:10342000D24B98421CBFD24B98421ED0D14B9842EF
:103430001CBFD14B984218D0D04B98421CBFD04BE8
:10344000984212D0CF4B98421CBFCF4B98420CD021
:10345000CE4B98421CBFCE4B984206D0CD4B9842E3
:103460001CBFCD4B984240F01E810368134213D01D
:10347000A96001684903016806D4C90506D401683A
:1034800021F00801016001E0080301D4216C00E093
:10349000A16C09B120468847E06D00F01F01202093
:1034A00000FA01F2324200F0838020681023B84213
:1034B00024D0AE4EB0421CBFAD4EB0421ED0AD4E79
:1034C000B0421CBFAC4EB04218D0AC4EB0421CBF94
:1034D000AB4EB04212D0AB4EB0421CBFAA4EB0426F
:1034E0000CD0AA4EB0421CBFA94EB04206D0A94E85
:1034F000B0421CBFA84EB04240F0E28007681F42B5
:1035000056D0AA6094F83520042A026819D122F016
:1035100016020260426922F080024261226C0AB9FE
:10352000A26C1AB1026822F0080202603F208840B3
:10353000A860002084F83400012084F83500216D53
:103540005BE0510301680CD4C9052DD4016821F05A
:1035500010010160002084F83400012084F8350057
:1035600022E0080320D4616C1FE000BF100002407D
:103570002800024040000240580002407000024013
:1035800088000240A0000240B8000240100402403F
:1035900028040240400402405804024070040240E3
:1035A00088040240A0040240E16B09B1204688472C
:1035B000606D28B3606DC0071ED04FF41650B8FB85
:1035C000F0F1042084F835002068026822F001023E
:1035D0000260019A01328A42019202D80268D2073F
:1035E000F7D1002184F834100068C0074FF00300C1
:1035F00008BF012084F83500E16C09B120468847F6
:10360000BDE8FC81674A90421CBF674A90420CD0DB
:10361000664A90421CBF664A904206D0654A904274
:103620001CBF654A904240F092800268E36D5707E4
:1036300003F01F0351D504279F4017EA01064CD021
:1036400011046F6060D4910662D4016821F0040116
:1036500001605DE0514FB8423FF466AE504FB84252
:103660003FF462AE554FB84218BF08235CE6F84BF2
:1036700098423FF491AEF74B98423FF48DAE4F4BDA
:1036800098423FF489AE02688EE6F14B98423FF4CF
:10369000B6AEF04B98423FF4B2AEF74B98423FF4CF
:1036A000AEAE0268B3E6EA4B98423FF4DEAEE94BB9
:1036B00098423FF4DAAEF04B984218BF0422D4E6A9
:1036C000E34EB0423FF41AAFE24EB0423FF416AFC1
:1036D000E94EB04218BF022310E797071AD5022718
:1036E0009F4017EA010615D011046F6029D4910696
:1036F0002BD4016821F00A010160002084F8340015
:10370000012084F8350020E0D00301D4A16C74E7D7
:10371000216C72E712077FF573AF08229A401140BF
:103720003FF46EAF0168012221F00E01016002FA40
:1037300003F068600020626584F8340084F8352066
:103740005AE7D00301D4616C57E7E16B55E7C84AEB
:1037500090423FF46AAFC74A90423FF466AFC64911
:1037600088423FF4B0AD4BE7100000202800024033
:1037700040000240580002407000024088000240B1
:10378000A0000240B8000240100402402804024099
:103790004004024058040240700402408804024081
:1037A000A004024094540258085402581C54025871
:1037B000305402584454025858540258B804024035
:1037C000B0B5044600F04AFC002C7CD005462068C9
:1037D000924988422AD0924988421CBF9149884226
:1037E00024D0914988421CBF904988421ED09049FC
:1037F00088421CBF8F49884218D08F4988421CBF1D
:103800008E49884212D08E4988421CBF8D49884219
:103810000CD08D4988421CBF8C49884206D08C4907
:1038200088421CBF8B49884240F0A080002184F868
:103830003410022184F83510016821F00101016083
:1038400005E000F00BFC401B052837D82068016814
:10385000C907F6D10168894A1140D4E9022311430E
:103860002269194363691143A5691943E26941EA71
:103870000503616A1A43236A042943EA020324D137
:10388000D4E90BC14CEA0302A36A11430160BCF105
:10389000000F50F8141F21F0030141EA030141F029
:1038A000040118D0B5F5005F47D0002D51D1022B8F
:1038B00052D0012B47D0002B4ED00CE02020606569
:1038C000032084F835000120B0BD036050F8142FA8
:1038D00022F00702114301602046FEF7CBFCE16DA8
:1038E0003F2201F01F0102FA01F181602046FEF73C
:1038F00013FDA068802802D10020606000E06068AD
:10390000C2B2216E0138D4E9193507280A605D601A
:1039100009D82046FEF748FD04F16C0207CA0023CF
:1039200003604A6003E00020C4E91B0060670020D8
:103930000121606584F83510B0BD032BCBD8DFE8DA
:1039400003F00F0B0F02ACF1C072B2FA82F252090F
:1039500004E0032B04D3BED1CCF30062002ABAD01A
:1039600040206065012084F83500B0BD3A498842A6
:103970001CBF3A4988420BD0394988421CBF39499B
:10398000884205D0384988421CBF3849884239D11D
:10399000002184F83410022184F835100168A268EF
:1039A0006FF31011A2F18003B3FA83F35B09402A8D
:1039B000E2684FEA833341EAD20108BF102322694B
:1039C0001943636941EAD201A26941EAD301E3697B
:1039D00041EAD201226A41EAD30141EA121140F8D8
:1039E00008191421C0B2B0FBF1F08000E065204658
:1039F000FEF740FCE16D012201F01F0102FA01F126
:103A0000416073E71A498842C2D01A498842BFD040
:103A10008D4988423FF40AAF402050E71000024031
:103A2000280002404000024058000240700002405E
:103A300088000240A0000240B8000240100402408A
:103A4000280402404004024058040240700402402E
:103A500088040240A00402409454025808540258BA
:103A60001C540258305402584454025858540258B6
:103A70006C54025880540258B80402403F8010FE33
:103A800010B5002800F0AB80044690F834000128FF
:103A900001D1022010BD012084F8340094F83500D3
:103AA000012840F09680022084F8350000206065EF
:103AB000D4F800C0DCF8000020F00100CCF80000D1
:103AC0002046FEF7FBFC20685049884202463BD066
:103AD0004F4A9042024637D04E4A9042024633D077
:103AE0004D4A904202462FD04C4A904202462BD07B
:103AF0004B4A9042024627D04A4A9042024623D07F
:103B0000494A904202461FD0484A904202461BD082
:103B1000474A9042024617D0464A9042024613D086
:103B2000454A904202460FD0444A904202460BD08A
:103B3000434A9042024607D0424A9042024603D08E
:103B4000414A90424DD1404A12680B2363F344022C
:103B50000260226C1AB1026842F008020260226E12
:103B60001368DB0303D5136843F480731360E26EBC
:103B70001AB1136843F480731360884223D0244938
:103B800088421CBF234988421DD0234988421CBF5C
:103B90002249884217D0224988421CBF21498842C5
:103BA00011D0214988421CBF204988420BD02049AE
:103BB00088421CBF1F49884205D01F4988421CBF4C
:103BC0001E49884219D1016841F0010101600020BD
:103BD00010BD002084F834004FF4006060650120BF
:103BE00010BD0268052363F343020260226C002AC1
:103BF000B5D0026842F00402B0E711498842E2D031
:103C000011498842DFD00F498842DCE710000240AA
:103C1000280002404000024058000240700002406C
:103C200088000240A0000240B80002401004024098
:103C3000280402404004024058040240700402403C
:103C400088040240A0040240B8040240B0B5044613
:103C500000F004FA054905460978621C18BF0C44B7
:103C600000F0FCF9401BA042FAD3B0BD08000020D0
:103C70002DE9F047DFF8F49199F81420012A01D1D9
:103C800002251BE004460120002589F81400C9F82C
:103C9000185088466068C10709D04CF250300121A5
:103CA000FEF75AFD0546002818BF01256068800709
:103CB00007D46DB10125002089F814002846BDE81D
:103CC000F0874CF250300221FEF746FD2843F1D137
:103CD0002068674E012808D161682069FEF7F8FC6A
:103CE0006068C10736D1002542E04FF0FF30C8F8C8
:103CF000000040F2047AA068074625E06168384673
:103D00002269FEF7B7FC6068C10701D100250AE00F
:103D10004CF250300121FEF71FFD3168054621EAC3
:103D20000A013160606880070BD54CF250300221E7
:103D3000FEF712FDD6F80011054621EA0A01C6F881
:103D4000001135BB0137A068E16808448742D5D32C
:103D50000025B0E74CF2503001210127FEF7FCFCB2
:103D60003168002821F00801316018BF3D466068C5
:103D70008007A0D54CF250300221FEF7EDFC002860
:103D800018BF0125D6F8000120F00800C6F8000190
:103D900091E7C8F800708EE73548016841F00101ED
:103DA00001600168C90701D101207047D0F80011F6
:103DB00041F00101C0F800110121D0F8000121EA11
:103DC000000070472DE9F84FDFF8A090022499F821
:103DD000140001284FF0020044D00F466FF3130780
:103DE00001200E46B7F1006F08BF012489F81400C6
:103DF0004FF000084CF25030C9F8188021461546A3
:103E0000FEF7AAFC60BB1A4800F5807A834650464C
:103E1000B7F1006F04BF42F20C00C5F20020016848
:103E200041F0020101600820BFF36F8FBFF34F8F95
:103E300002CD013802C60106FAD1BFF36F8FBFF37E
:103E40004F8F4CF250302146FEF786FCB7F1006FE1
:103E500008BFDA46DAF8001021F00201CAF80010B3
:103E600089F8148001B0BDE8F08F00BFA8A400203D
:103E70000C2000520E488168C90706D00D49016028
:103E80000D4901608168C9070FD1D0F80811C90731
:103E900009D00849C0F800110749C0F80011D0F84E
:103EA0000801C00701D1002070470120704700BF02
:103EB0000420005223016745AB89EFCD2DE9FC4F6B
:103EC0005B4A0A275B4C02444FEAB223A04208BF78
:103ED00009274FF0000A4FF0010B4FF000090024B2
:103EE000092B38BF4FEAB227009795E00BFA04F28E
:103EF00015EA020C00F08B80D1F804E04EF01006B9
:103F0000122E11D16FF0030303EA5406064409F0A0
:103F10001C07336A0F25BD40AB430D6905FA07F74F
:103F20003B433362D1F804E00325036805FA0AF540
:103F30000EF00306AB4306FA0AF63343BEF1120F46
:103F400003606FEA050815D80BFA0EF313F0061F8D
:103F500010D08368CD6803EA080305FA0AF52B43FD
:103F600083604368CEF3001523EA020205FA04F3E6
:103F70001A434260C2688B6802EA080203FA0AF335
:103F80001A435FEACE03C26041D5274A13462A4D41
:103F900012680F2642F002021A604FF0B04E1A6803
:103FA00002F00202019224F00302019B09F00C03CB
:103FB00057599E40B743009E06FA03F33B435351C3
:103FC0001A4A1546D26F4B6842EA0C07DE0358BF07
:103FD00022EA0C07EF679E03D5F8802042EA0C071F
:103FE00058BF22EA0C07C5F88070DEF80020DE0218
:103FF00042EA0C0758BF22EA0C07CEF800702A6884
:104000009B0242EA0C0758BF22EA0C072F600134DA
:1040100009F104090AF1020A0D6835FA04F27FF485
:1040200065AFBDE8FC8F00BFF4440258040000589F
:104030000000FEA700240258080400580069084048
:1040400018BF01207047002A08BF0904816170472A
:1040500001480068000C70470010005C01480068CF
:10406000704700BF54A6002090F84120202A03D1B9
:1040700090F84020012A01D1022118E0242280F882
:1040800041200268136823F001031360136823F4CE
:1040900080531360136819431160116841F00101E6
:1040A0001160202180F84110002180F8401008465E
:1040B000704790F84120202A03D190F84020012A2F
:1040C00001D1022117E0242280F841200268136800
:1040D00023F001031360136823F4706343EA0121A2
:1040E0001160116841F001011160202180F8411038
:1040F000002180F8401008467047000008B310B552
:10410000044690F8410028B9002084F84000204679
:1041100000F0FAF9242084F8410094E80910E268DC
:10412000012A016821F00101016023F07061016141
:10413000816821F40041816005D14CF40041816027
:1041400009E0012070474CF40441022A816002D149
:104150004FF40061416041680F4A04F110031143BC
:104160004160C16821F40041C1600ECB1143E26996
:1041700041EA0321C160216A11430160016841F0F5
:104180000101016000202021606484F84110206357
:1041900084F8420010BD00BF008000022DE9FE4FF0
:1041A00000270297044690F84100202808D1206893
:1041B00089468169090403D494F84010012903D188
:1041C000022003B0BDE8F08F1D466FF39F29904693
:1041D0000121242284F84010002384F841206F1C20
:1041E00063644FF0200AE16801294FF4205104BFB5
:1041F00042F20001C0F2002149444160FFF72EFF66
:104200000646206881698269120942EA5111C9078C
:1042100008D1002FF5D0FFF721FF6DB3801BA84216
:10422000EFD929E0D0F818B02021002200962046CE
:104230002B4603F0C1FC5FEACB6129D530BB206877
:104240001021C161C0F81CA0029941450ED14168FE
:10425000002241F4804141602021204600962B46F7
:1042600003F0AAFC90B92068C0F81CA002990131A3
:10427000029102994145B6D3202084F84100606C38
:1042800040F020006064002084F84000012098E79E
:104290000028FBD120682021C161002084F8411052
:1042A00084F840008DE700002DE9F843044690F8BB
:1042B0004100202803D194F84000012804D10227AE
:1042C000384601B0BDE8F08301271D4684F84070F0
:1042D00016468846FFF7C2FE814600904FF4004123
:1042E00001221923204603F067FC0028E8D1222090
:1042F00084F84100102084F8420000206064666267
:1043000065856063608DB0F5807F324805D3FF21FD
:104310002185FF224FF0807304E0618D4FF0007320
:10432000CAB2218500902046414603F02DFC0025AD
:10433000089FFF2633E0204639464A4603F06CFCCE
:10434000B0BB2068616A406A0870218D606A0130E4
:104350000139606221850904608DA0F1010060854A
:10436000608D1CD1D8B18021CDF80090002220466C
:104370003B4603F021FCD8B9608DB0F5807F04D3B3
:10438000FF2226854FF0807304E0608D4FF00073AC
:104390002085C2B220460095414603F0F5FB608DB2
:1043A0000028C8D1204639464A4603F06FFC08B1C0
:1043B000012785E720682021C161524B0027426810
:1043C0001A40426084F8411084F8427084F84070CA
:1043D00076E700BF002400802DE9F843044690F8FA
:1043E0004100202803D194F84000012804D102277D
:1043F000384601B0BDE8F08301271D4684F84070BF
:1044000016468846FFF72AFE814600904FF4004189
:1044100001221923204603F0CFFB0028E8D12120F8
:1044200084F84100102084F8420000206064666235
:1044300065856063608DB0F5807F314805D3FF21CD
:104440002185FF224FF0807304E0618D4FF00073EF
:10445000CAB2218500902046414603F095FB002515
:10446000089FFF2631E0204639464A4603F032FCD9
:10447000A0BB606A10F8011B226891626062608DC7
:1044800001386085208D411E21850904608D1CD175
:10449000D8B18021CDF80090002220463B4603F0A1
:1044A0008BFBD8B9608DB0F5807F04D3FF222685C1
:1044B0004FF0807304E0608D4FF000732085C2B22E
:1044C00020460095414603F05FFB608D0028CAD16D
:1044D000204639464A4603F0D9FB08B1012787E751
:1044E00020682021C161074B002742681A404260C2
:1044F00084F8411084F8427084F8407078E700BF77
:104500000020008000E800FE704700002948007885
:1045100002490A6810440860704700BF54A6002092
:1045200080B5032000F08CF801F02CFD0E490A68DC
:10453000C2F303220D4B9A5C02F01F02D0401E4AC8
:104540001060096801F00F01595C01F01F01C840BB
:1045500007490860002000F00DF808B1012080BD77
:1045600000F02CF8002080BD18440258002E0108ED
:104570001400002070B50F4E3178C1B104464FF4DD
:104580007A70B0FBF1F00C490968B1FBF0F003F070
:10459000CDF80F2C4FF001050AD848B94FF0FF3085
:1045A00000222146002500F02BF8746000E0012570
:1045B000284670BD08000020100000207047000051
:1045C00000280CDB00F01F01012202FA01F1044A6D
:1045D000400942F82010BFF34F8FBFF36F8F704731
:1045E00080E100E0002808DB00F01F01012202FA50
:1045F00001F1024A400942F82010704700E100E052
:1046000080B5154B1B68C3F3022C8CF0070EBEF16E
:10461000040F28BF4FF0040EBCF103034FF0FF3C22
:1046200038BF00230CFA0EFE21EA0E0199400CFA65
:1046300003F39A431143BDE8804007F085B800BFFB
:1046400005490A684FF6FF031A4060F30A2203483F
:1046500010430860704700BF0CED00E00000FA0551
:1046600001220168C0F8FC23002280F8F423054AE7
:10467000886940F000608861486D024300204A6507
:10468000704700BF030000107047026800205162AD
:104690007047D0F800C00029DCF824001BD080B59A
:1046A000DCF82830A1F1010E00EB1343002006E0F6
:1046B0000CEB8101D1F80411013003EB1143C1B2BD
:1046C0008E45F5D843EA02400CEB8E01C1F8040197
:1046D000BDE8804003E040EA0240CCF8280000201A
:1046E0007047D0F8040405F028BEC1EBC102D0F831
:1046F000043400EB8200826C184605F099BDC1EBD2
:10470000C102D0F8043400EB8200D0F80822184629
:1047100005F0E0BDD0F8040405F011BE10B5044664
:1047200001F00F000A06C0EBC00104EB810205D4C2
:10473000002302F5FE7182F8FD3104E0012302F14D
:104740003C0182F83D3094F8BC230870012A01D165
:10475000022010BD012084F8BC03206806F0A4F9F3
:10476000002084F8BC0310BDB0B5044601F00F0072
:104770006268904201D9012525E0090609D4C0EB01
:10478000C00104EB8102002302F5FE7182F8FD31C5
:1047900008E0C0EBC00104EB8102012302F13C01FF
:1047A00082F83D3094F8BC2300258D70012A0870F2
:1047B00001D1022507E0012084F8BC03206806F03F
:1047C00047FB84F8BC532846B0BD01F00F01C1EB94
:1047D000C10100EB8100D0F814027047B0B5054666
:1047E00001F00F000C06C0EBC00105EB810C06D4F4
:1047F0004FF0000E0CF5FE718CF8FDE105E04FF076
:10480000010E0CF13C018CF83DE04C780870002C56
:104810008A60CB7018BFC880022B04BF00200871CB
:1048200095F8BC03012801D10220B0BD012085F814
:10483000BC03286806F04CF8002085F8BC03B0BD26
:1048400080B501F00F0CCCEBCC0100EB810E002108
:10485000CEF80822CEE9843103698EF8FD11012BD0
:104860000EF5FE718EF8FCC101D1CEF80C22DAB241
:104870000068BCF1000F02D006F022FB01E006F058
:1048800041FA002080BDB0B50446406801F00F0534
:10489000854201D90120B0BD080609D4C1EBC10091
:1048A00004EB8000002200F5FE7180F8FD2108E095
:1048B000C5EBC50004EB8000012200F13C0180F84B
:1048C0003D2094F8BC2301208870012A0D7001D18D
:1048D0000220B0BD84F8BC03206806F0D2FA2DB9DE
:1048E000217C04F57172206806F086FA002084F8B5
:1048F000BC03B0BD10B501F00F0CCCEBCC0100EB4C
:10490000810E714601F83CCF0024C1E905340369EA
:104910000124012BCA604C7001D1CEF84C20DAB2D0
:104920000068BCF1000F02D006F0CAFA01E006F000
:10493000E9F9002010BD00002DE9F04F87B00668AE
:104940008246304606F0AEFB10B107B0BDE8F08FEE
:10495000DAF8000006F0D2FB0028F6D0DAF8000002
:1049600006F0CCFB8007DAF8000003D5416901F0BE
:104970000201416106F0C2FB0003059602D44FF02C
:10498000000BDCE0DAF8000006F097FB0AF5717125
:104990000AF5057406914FF0000B4FF43068074696
:1049A000C9E0F80700F0C1805FFA8BF5DAF8000083
:1049B000294606F09BFB0646C00765D005980121F5
:1049C00040448160DAF8000008EB0009016CD9F876
:1049D0000800DAF81020012A29D1020738D482060B
:1049E0004FD410F0280F4FD1DC4A0132914202D34C
:1049F00010F4004042D1D9F810006FF3DF4054E9C1
:104A00000412081A2060501844F80C0C504629462D
:104A1000FFF775FEBBF1000F36D1DAF8100298BB34
:104A2000DAF800000121069A06F0E6F92CE0CB4AFC
:104A300002F58072914206D101041FD4800602D58E
:104A40002020C9F8080050462946FFF758FE1BE011
:104A5000C24A0132914206D310F400401CBF4FF409
:104A60000040C9F80800504600F078FBDAF8000072
:104A70000121069A06F0C0F9082003E04FF4004037
:104A800000E02020C9F80800300731D5DAF800002E
:104A9000056C40448168DAF81020012A06D1AF4A3B
:104AA000954209D8504600F059FB1DE0AB4A9146AB
:104AB00002F58072954208D1090402D54FF40041F5
:104AC0008160504600F04AFB04E0504600F046FB8F
:104AD0004D4509D9DAF81000012805D1DAF80000AF
:104AE0000121069A06F088F9059808214044816062
:104AF000F00603D50598102140448160B0060DD51D
:104B0000DAF81000012805D1DAF800000121069A30
:104B100006F072F90598202140448160B00404D564
:104B200005984FF40051404481600BF1010B7F0860
:104B300008F120081C34002F7FF433AF059EDAF80B
:104B4000000006F0DBFA400340F1BF80DAF8000015
:104B500006F0ACFA06F510670AF5717102974FF08E
:104B6000000B01910246ADE0D00700F0A8805FFA8B
:104B70008BF1DAF800000492069106F0A5FA0546DA
:104B8000C0072DD00BF00F00D6F83418012202FA1E
:104B900000F021EA0000C6F8340807EB4B108260F1
:104BA000DAF81000012807D1CBEBCB000AEB80002C
:104BB000D0E911121144816450460699FFF795FD22
:104BC000BBF1000F0CD1DAF81000012808D1DAF897
:104BD000500028B9DAF800000121019A06F00CF91A
:104BE000280703D507EB4B1008218160E806049ADB
:104BF00003D507EB4B1010218160680603D507EB46
:104C00004B1040218160A80703D507EB4B10022110
:104C10008160280653D5CBEBCB000AEB8009C84650
:104C200058F8501F444654F8040F814247D35B465E
:104C300059F8442FA1EB000BDAF80050934588BFD8
:104C4000934605EB43120393564602F5106A09F1A9
:104C5000040718E0A1EB000BD9F80000327C834573
:104C600088BF83461FFA8BF3396828460092069A5C
:104C700006F0F8FA386858442168386001EB0B00F8
:104C80002060D8F80010DAF818200BF1030392B274
:104C9000B2EB930F28BF8142DCD88142B246DDE9F6
:104CA000027BDDE904260AD80BF00F00012101FA8E
:104CB00000F0D5F8341821EA0000C5F834080BF1EB
:104CC000010B5208002A7FF44FAFDAF8000006F01B
:104CD00015FA002802DBDAF800001AE0D6F804081A
:104CE00020F00100C6F804089AF8F403012807D15F
:104CF00000208AF8F40300215046FFF7C5FC02E0CB
:104D0000504600F00FFADAF80000416901F0004166
:104D1000416106F0F3F9000502D4DAF800000CE076
:104D2000D6F80808C00702D0504600F03DFADAF87D
:104D30000000416901F40061416106F0DFF9000102
:104D40001AD5DAF80000416901F0006141619AF872
:104D5000F41329B1504600F027FA0DE00A30544F01
:104D600001218AF8F4130121406DC0F38300CAF8D1
:104D7000F8035046FFF788FCDAF8000006F0BEF9A9
:104D8000C00402D4DAF8000051E0D6F8040810217B
:104D900020F00100C6F8040806F50064DAF8000007
:104DA00006F060F906F51060DAF804104FF67F326D
:104DB0000EE082600139036823F400130360C0F839
:104DC0000822D0F8003223F40013C0F8003220305B
:104DD0000029EED1E06940F00110E061DAF830001E
:104DE00040B1D4F8840040F00B00C4F8840004F112
:104DF000440006E0606942F22B010843606104F15F
:104E0000100001680AF5717241F00B010160206821
:104E100020F4FE6020609AF81010DAF8000005F027
:104E2000EBFFDAF80000416901F48051416106F0BE
:104E300065F98004DAF800001AD505F08BFDDAF880
:104E4000000006F021F9CAF80C00DAF8005001F071
:104E500065F89AF80C200146284606F089F9504674
:104E600000F046F9DAF80000416901F400514161AF
:104E700006F044F9C006DAF800003ED5816921F059
:104E800010018161356AC5F3434005F00F0406281F
:104E90001CD002282BD147F6F070054027D0C4EB78
:104EA000C4000AEB8004D4F808122A09304606F040
:104EB00029F9D4F80802D4F8141200EB1510C4F83C
:104EC000080201EB1510C4F8140210E00AF5717124
:104ED0000822304606F016F9C4EBC401C5F30A10E7
:104EE0000AEB8101D1F814221044C1F81402DAF857
:104EF0000000816941F01001816106F0FFF80007B0
:104F000002D4DAF8000008E0504600F00FF9DAF8B1
:104F10000000416901F00801416106F0EFF8C002AC
:104F200002D4DAF800000AE05FFA8BF1504600F094
:104F30003BF8DAF80000416901F48011416106F0A4
:104F4000DDF8800202D4DAF800000AE05FFA8BF1A3
:104F5000504600F02DF8DAF80000416901F4001124
:104F6000416106F0CBF8400002D4DAF8000008E016
:104F70005046FFF7B6FBDAF80000416901F08041C6
:104F8000416106F0BBF840077FF5DFACDAF80000BE
:104F90004468610704D55046FFF7BCFBDAF800000F
:104FA000416821434160D0E4D0F8040405F020BA00
:104FB000D0F8040405F01EBA2DE9F04F8BB000289C
:104FC00000F080800446056890F8BD0328B90020F1
:104FD00084F8BC03204600F08AF8032084F8BD035F
:104FE000E86BC00501D400202061206805F082FE36
:104FF000206804F1040E0A9004F11C0A9EE80E5881
:105000009AE8C007D4E90C50CDE9085003A88DE810
:10501000005880E8C0070A9805F0B8FC00284ED177
:1050200020680021002506F07BF80120616800223D
:105030000FE0C3EBC30704EB870787F83D0087F851
:105040003C200132A7F8423087F83F50C7E911559C
:105050003D65D3B29942ECD8002000220EE0C3EBAC
:10506000C30304EB830383F8FD0183F8FC210132C1
:1050700083F8FF01C3E98100C3F81002D3B299425B
:10508000EDD8A06804F1140E0A9004F1240A2268F5
:10509000D4E903379EE840589AE80007D4E90C5059
:1050A000CDE9085002A8CDE9007680E8005805A8AF
:1050B00080E8000710460A9A05F04CFD30B1022046
:1050C00084F8BD0301200BB0BDE8F08F002084F808
:1050D0003800012084F8BD03606A012802D120460F
:1050E000FFF7BEFA206805F029FD0020EBE77047C6
:1050F00010B50446C06838B1022803D00848D3214F
:1051000006F074F9012100E00021D4F8040405F050
:10511000BDF9D4F80404BDE8104005F082B900BF21
:10512000B4660108D0F8040405F09BB9D0F8040473
:1051300005F09EB910B5044690F8BC03012801D1D2
:10514000022010BD012084F8BC0384F838102068C8
:1051500005F0FDFF002084F8BC0310BDD0F8042446
:1051600000F57171104605F09EB910B5044690F82F
:10517000BC03012801D1022010BDA26A01212068D0
:10518000012A84F8BC1306D1A169012903D0816BDF
:1051900041F48031816305F0C5FC206805F04AFFC9
:1051A000002084F8BC0310BD10B50446D0F80404F8
:1051B00005F0B8F92068D0F8001E41F00101C0F8F0
:1051C000001E206A20B10348016841F00601016019
:1051D00010BD00BF10ED00E00248016841F0807191
:1051E000016070470C48025880B500F0CBFE0649BC
:1051F0000F4A0968C1F30321515C01F01F01C84047
:105200000249086080BD00BF184402581000002009
:1052100080B500F083FE0549054A0968C1F3021113
:10522000515C01F01F01C84080BD00BF20440258FE
:10523000002E010810B53C4CA36AA26AC2F3053CDB
:10524000E26AE16B02F01002C1F3CC01BCF1000F85
:1052500002FB01F100EE101AB8EE400A0AD003F08A
:105260000303022B0AD063B9216889060CD49FED91
:10527000311A13E00021C0E9001153E09FED2C1A10
:105280000CE09FED2A1A09E021682B4AC1F3C10105
:1052900022FA01F101EE101AB8EE411A02EE10CA1C
:1052A0009FED263AB8EE422AA16B6FF35F2181EEA3
:1052B000021A02EE101AB8EE422AA16BC1F346217F
:1052C00000EE032AB7EE000A03EE101A32EE002AAF
:1052D000B8EE433A21EE021A33EE002A81EE022A9A
:1052E000BCEEC22A80ED002AA16BC1F3064102EE9A
:1052F000101AB8EE422A32EE002A81EE022ABCEEE3
:10530000C22A80ED012AA16BC1F3066102EE101AD8
:10531000B8EE422A32EE000A81EE000ABCEEC00A64
:1053200010EE101A816010BD004402580024744A27
:10533000001B374B0024744C0090D0030000003950
:1053400010B53C4CA36AA26AC2F3055CE26A616CC8
:1053500002F48072C1F3CC01BCF1000F02FB01F139
:1053600000EE101AB8EE400A0AD003F00303022B35
:105370000AD063B9216889060CD49FED311A13E075
:105380000021C0E9001153E09FED2C1A0CE09FEDC5
:105390002A1A09E021682B4AC1F3C10122FA01F15E
:1053A00001EE101AB8EE411A02EE10CA9FED263A2D
:1053B000B8EE422A216C6FF35F2181EE021A02EEF1
:1053C000101AB8EE422A216CC1F3462100EE032ADE
:1053D000B7EE000A03EE101A32EE002AB8EE433A96
:1053E00021EE021A33EE002A81EE022ABCEEC22A16
:1053F00080ED002A216CC1F3064102EE101AB8EECE
:10540000422A32EE002A81EE022ABCEEC22A80ED48
:10541000012A216CC1F3066102EE101AB8EE422A8D
:1054200032EE000A81EE000ABCEEC00A10EE101A3D
:10543000816010BD004402580024744A001B374BA1
:105440000024744C0090D003000000392DE9F0478F
:105450000446C078AC4F000721D5606E4FEA30514A
:10546000032908D8DFE801F002090E16F96941F4B2
:105470000031F9610EE0012612E0201D022102F048
:1054800041FD04E004F12400022102F0BBFD0646C8
:1054900030B9606E396C21F440110843386400263D
:1054A0006078BA46C00701D1354629E0606D04280E
:1054B0000BD83546DFE800F0030C11171700F86928
:1054C000354640F40030F8610DE00125012718E071
:1054D000201D002102F016FD04E004F1240000214B
:1054E00002F090FD0546002D2F460AD1DAF8400063
:1054F000002520F00700616D08435246CAF84000BD
:105500003746607880072CD5A06D4FEAB01004288C
:105510000CD8DFE800F0030E13191900DAF81C00AC
:10552000514640F40030CAF81C000DE00125012668
:1055300018E0201D002102F0E5FC04E004F1240045
:10554000002102F05FFD0546002D2E460AD1DAF853
:105550004000002520F4E070A16D08435246CAF8CF
:1055600040003E466078400702D4B04657462BE0E4
:10557000D4F8A40057464FEA7050042809D8DFE851
:1055800000F0030C11171700F86940F40030F861BF
:105590000EE001254FF0010816E0201D002102F069
:1055A000B1FC04E004F12400002102F02BFD0546CB
:1055B000002DA84608D1B86C002520F46000D4F86E
:1055C000A4100843B046B864607800072BD5D4F81F
:1055D000A8004FEA3060042809D8DFE800F0030B88
:1055E00010161600F86940F40030F8610DE001254E
:1055F000012719E0201D002102F084FC04E004F1E1
:105600002400002102F0FEFC0546002D2F460BD1A0
:10561000DAF84800002520F0E060D4F8A81008432C
:105620005246CAF848004746E078800725D5A06C66
:105630004FEA301003280BD8DFE800F012020D12F9
:10564000DAF81C00514640F40030CAF81C0007E0AC
:105650000125012612E0201D022102F053FC05461F
:10566000002D2E460AD1DAF83C00002520F030004B
:10567000A16C08435246CAF83C003E466078C0061A
:105680002CD5E06D4FEA303004280CD8DFE800F06C
:10569000030E13191900DAF81C00514640F40030CB
:1056A000CAF81C000DE00125012718E0201D00218B
:1056B00002F028FC04E004F12400002102F0A2FC26
:1056C0000546002D2F460AD1DAF84000002520F4C7
:1056D000E040E16D08435246CAF840003746607822
:1056E000800626D5206E4FEA3040052809D8DFE82D
:1056F00000F013030D131313201D012102F002FC0F
:1057000009E00125012615E01044025804F12400A7
:10571000012102F077FC0546002D2E460AD1DAF869
:105720004000002520F4E020216E08435246CAF8CC
:1057300040003E466078400626D5D4F8AC004FEADB
:105740003070052809D8DFE800F011030B111111A2
:10575000201D012102F0D6FB07E00125012714E0FE
:1057600004F12400012102F04DFC0546002D2F46D6
:105770000BD1DAF84800002520F0E040D4F8AC1056
:1057800008435246CAF8480037466078000621D5DB
:10579000E06E90B1B0F1005F0AD0B0F1805F2DD122
:1057A000DAF81C00514640F40030CAF81C0004E04E
:1057B000201D012102F0A6FB0546002D2E460AD130
:1057C000DAF84000002520F04050E16E08435246D0
:1057D000CAF840003E46E078C00702D1B0465746BE
:1057E00023E0606C574603280BD8DFE800F0130273
:1057F0000E13F86940F40030F8610BE00125012632
:10580000E9E701254FF001080FE0201D022102F019
:1058100079FB0546002DA84607D1F86B002520F03E
:105820000300616C0843B046F863A078400601D4D9
:10583000474617E0D7F8F00340F48070C7F8F0034C
:10584000FEF70CFC0646D7F8F003C00507D4FEF7B8
:1058500005FC801B6428F6D90325032702E0002DF0
:105860002F4611D02078C0074FD0A06F4FEAF0002C
:10587000052834D8DFE800F03C03363C3C3C201DD2
:10588000012102F03FFB32E0DAF860105346D4F811
:10589000B000414011F4407F0BD0196E1A6E21F414
:1058A000407142F480321A661A6E22F480321A660F
:1058B0001966B0F5807F40F01882FEF7CFFB0646F0
:1058C00041F2883903250327DAF86000800700F1E8
:1058D0000982FEF7C3FB801B4845F5D9C2E70125C5
:1058E000012613E004F12400012102F08BFB0546A0
:1058F000002D2E460AD1DAF84400002520F03800A9
:10590000A16F08435246CAF844003E4620788007FB
:1059100022D5606F052809D8DFE800F011030B11CC
:105920001111201D012102F0EDFA07E001250127E8
:1059300013E004F12400012102F064FB0546002D70
:105940002F460AD1DAF84400002520F00700616FE5
:1059500008435246CAF8440037462078400724D509
:10596000D4F89000052809D8DFE800F011030B11E6
:105970001111201D012102F0C5FA07E001250126C1
:1059800014E004F12400012102F03CFB0546002D47
:105990002E460BD1DAF84800002520F00700D4F895
:1059A000901008435246CAF848003E4620788006C8
:1059B00026D5D4F88C004FEA3070052809D8DFE8E6
:1059C00000F011030B111111201D002102F09AFAB1
:1059D00007E00125012714E004F12400022102F070
:1059E00011FB0546002D2F460BD1DAF844000025A7
:1059F00020F0E040D4F88C1008435246CAF8440026
:105A000037462078400626D5D4F898004FEAB020D3
:105A1000052809D8DFE800F011030B111111201D32
:105A2000002102F06FFA07E00125012614E004F1DD
:105A30002400022102F0E6FA0546002D2E460BD185
:105A4000DAF84800002520F4E050D4F89810084314
:105A50005246CAF848003E462078000626D5D4F8BB
:105A60009C004FEA7030052809D8DFE800F01103E8
:105A70000B111111201D002102F044FA07E001254D
:105A8000012714E004F12400022102F0BBFA0546CC
:105A9000002D2F460BD1DAF84800002520F4604095
:105AA000D4F89C1008435246CAF84800374620688C
:105AB000010716D5D4F88010B1F5805F09D104F143
:105AC0002400022102F09EFA002818BF0127206856
:105AD00007E0DAF84420534622F440521143CAF852
